:020000040800F2
:1000000000500020953B00082146000823460008C8
:100010002546000827460008294600080000000081
:100020000000000000000000000000002B46000857
:100030002D460008000000002F4600083146000849
:10004000DD3B0008DD3B0008DD3B0008DD3B000830
:10005000DD3B0008DD3B0008DD3B0008DD3B000820
:10006000DD3B0008DD3B0008DD3B0008DD3B000810
:10007000DD3B0008DD3B0008DD3B0008DD3B000800
:10008000DD3B0008DD3B0008DD3B0008DD3B0008F0
:10009000DD3B0008DD3B0008DD3B0008DD3B0008E0
:1000A000DD3B0008DD3B0008DD3B0008DD3B0008D0
:1000B000DD3B0008DD3B0008DD3B00083946000859
:1000C000DD3B0008DD3B0008DD3B0008DD3B0008B0
:1000D000DD3B000849460008DD3B0008DD3B000829
:1000E000DD3B0008DD3B0008DD3B000800000000B0
:1000F0000000000000000000000000000000000000
:0C01000000000000000000005FF808F1A3
:1001100010B5054C237833B9044B13B10448AFF341
:1001200000800123237010BDE001002000000000CA
:10013000AC7D000808B5034B1BB103490348AFF37E
:10014000008008BD00000000E4010020AC7D000834
:10015000034613F8012B002AFBD1181A0138704707
:1001600081F0004102E000BF83F0004330B54FEA68
:1001700041044FEA430594EA050F08BF90EA020FD5
:100180001FBF54EA000C55EA020C7FEA645C7FEA68
:10019000655C00F0E2804FEA5454D4EB5555B8BF8B
:1001A0006D420CDD2C4480EA020281EA030382EAFC
:1001B000000083EA010180EA020281EA0303362D8E
:1001C00088BF30BD11F0004F4FEA01314FF4801C61
:1001D0004CEA113102D0404261EB410113F0004F73
:1001E0004FEA03334CEA133302D0524263EB43032A
:1001F00094EA050F00F0A780A4F10104D5F1200EC8
:100200000DDB02FA0EFC22FA05F2801841F1000122
:1002100003FA0EF2801843FA05F359410EE0A5F1F6
:1002200020050EF1200E012A03FA0EFC28BF4CF027
:10023000020C43FA05F3C01851EBE37101F00045DD
:1002400007D54FF0000EDCF1000C7EEB00006EEBEA
:100250000101B1F5801F1BD3B1F5001F0CD3490874
:100260005FEA30004FEA3C0C04F101044FEA4452CB
:1002700012F5800F80F09A80BCF1004F08BF5FEA52
:10028000500C50F1000041EB045141EA050130BD32
:100290005FEA4C0C404141EB0101013C28BFB1F544
:1002A000801FE9D291F0000F04BF01460020B1FA8F
:1002B00081F308BF2033A3F10B03B3F120020CDA62
:1002C0000C3208DD02F1140CC2F10C0201FA0CF040
:1002D00021FA02F10CE002F11402D8BFC2F1200CA5
:1002E00001FA02F120FA0CFCDCBF41EA0C0190405B
:1002F000E41AA2BF01EB0451294330BD6FEA0404A4
:100300001F3C1CDA0C340EDC04F11404C4F120028E
:1003100020FA04F001FA02F340EA030021FA04F3A0
:1003200045EA030130BDC4F10C04C4F1200220FAF7
:1003300002F001FA04F340EA0300294630BD21FA35
:1003400004F0294630BD94F0000F83F4801306BFFB
:1003500081F480110134013D4EE77FEA645C18BFEF
:100360007FEA655C29D094EA050F08BF90EA020F86
:1003700005D054EA000C04BF1946104630BD91EA7E
:10038000030F1EBF0021002030BD5FEA545C05D181
:100390004000494128BF41F0004130BD14F58004C0
:1003A0003CBF01F5801130BD01F0004545F0FE4134
:1003B00041F470014FF0000030BD7FEA645C1ABF69
:1003C000194610467FEA655C1CBF0B46024650EAA0
:1003D000013406BF52EA033591EA030F41F40021CC
:1003E00030BD00BF90F0000F04BF0021704730B552
:1003F0004FF4806404F132044FF000054FF0000127
:1004000050E700BF90F0000F04BF0021704730B5E7
:100410004FF4806404F1320410F0004548BF4042BC
:100420004FF000013EE700BF42004FEAE2014FEA11
:1004300031014FEA02701FBF12F07F4393F07F4FEC
:1004400081F06051704732F07F4208BF704793F0EF
:100450007F4F04BF41F40021704730B54FF4607402
:1004600001F0004521F000411CE700BF50EA010205
:1004700008BF704730B54FF000050AE050EA0102AE
:1004800008BF704730B511F0004502D5404261EB1E
:1004900041014FF4806404F132045FEA915C3FF45F
:1004A000D8AE4FF003025FEADC0C18BF03325FEAFC
:1004B000DC0C18BF033202EBDC02C2F1200300FAAD
:1004C00003FC20FA02F001FA03FE40EA0E0021FAD2
:1004D00002F11444BDE600BF70B54FF0FF0C4CF4C0
:1004E000E06C1CEA11541DBF1CEA135594EA0C0F72
:1004F00095EA0C0F00F0DEF82C4481EA030621EAAD
:100500004C5123EA4C5350EA013518BF52EA0335E7
:1005100041F4801143F4801338D0A0FB02CE4FF099
:100520000005E1FB02E506F00042E0FB03E54FF0C9
:100530000006E1FB03569CF0000F18BF4EF0010EC1
:10054000A4F1FF04B6F5007F64F5407404D25FEABD
:100550004E0E6D4146EB060642EAC62141EA555170
:100560004FEAC52040EA5E504FEACE2EB4F1FD0CB2
:1005700088BFBCF5E06F1ED8BEF1004F08BF5FEA30
:10058000500E50F1000041EB045170BD06F00046E2
:1005900046EA010140EA020081EA0301B4EB5C048F
:1005A000C2BFD4EB0C0541EA045170BD41F4801187
:1005B0004FF0000E013C00F3AB8014F1360FDEBFAC
:1005C000002001F0004170BDC4F10004203C35DA88
:1005D0000C341BDC04F11404C4F1200500FA05F30B
:1005E00020FA04F001FA05F240EA020001F00042AC
:1005F00021F0004110EBD37021FA04F642EB060122
:100600005EEA430E08BF20EAD37070BDC4F10C044B
:10061000C4F1200500FA04F320FA05F001FA04F20F
:1006200040EA020001F0004110EBD37041F10001FB
:100630005EEA430E08BF20EAD37070BDC4F1200506
:1006400000FA05F24EEA020E20FA04F301FA05F26E
:1006500043EA020321FA04F001F0004121FA04F216
:1006600020EA020000EBD3705EEA430E08BF20EAE6
:10067000D37070BD94F0000F0FD101F00046400020
:1006800041EB010111F4801F08BF013CF7D041EAA2
:10069000060195F0000F18BF704703F000465200A6
:1006A00043EB030313F4801F08BF013DF7D043EA77
:1006B0000603704794EA0C0F0CEA135518BF95EA2D
:1006C0000C0F0CD050EA410618BF52EA4306D1D1B4
:1006D00081EA030101F000414FF0000070BD50EAD3
:1006E000410606BF1046194652EA430619D094EA5D
:1006F0000C0F02D150EA013613D195EA0C0F05D147
:1007000052EA03361CBF104619460AD181EA03019A
:1007100001F0004141F0FE4141F470014FF0000052
:1007200070BD41F0FE4141F4780170BD70B54FF0ED
:10073000FF0C4CF4E06C1CEA11541DBF1CEA13556D
:1007400094EA0C0F95EA0C0F00F0A7F8A4EB05044F
:1007500081EA030E52EA03354FEA013100F0888046
:100760004FEA03334FF0805545EA131343EA12630F
:100770004FEA022245EA111545EA10654FEA0026C4
:100780000EF000419D4208BF964244F1FD0404F57D
:10079000407402D25B084FEA3202B61A65EB0305D9
:1007A0005B084FEA32024FF480104FF4002CB6EB96
:1007B000020E75EB030E22BFB61A754640EA0C0016
:1007C0005B084FEA3202B6EB020E75EB030E22BF56
:1007D000B61A754640EA5C005B084FEA3202B6EB97
:1007E000020E75EB030E22BFB61A754640EA9C0056
:1007F0005B084FEA3202B6EB020E75EB030E22BF26
:10080000B61A754640EADC0055EA060E18D04FEAE3
:10081000051545EA16754FEA06164FEAC30343EA83
:1008200052734FEAC2025FEA1C1CC0D111F4801F50
:100830000BD141EA00014FF000004FF0004CB6E749
:1008400011F4801F04BF01430020B4F1FD0C88BFE8
:10085000BCF5E06F3FF6AFAEB5EB030C04BFB6EBF3
:10086000020C5FEA500C50F1000041EB045170BDE6
:100870000EF0004E4EEA113114EB5C04C2BFD4EB13
:100880000C0541EA045170BD41F480114FF0000E97
:10089000013C90E645EA060E8DE60CEA135594EA13
:1008A0000C0F08BF95EA0C0F3FF43BAF94EA0C0F16
:1008B0000AD150EA01347FF434AF95EA0C0F7FF48B
:1008C00025AF104619462CE795EA0C0F06D152EADF
:1008D00003353FF4FDAE1046194622E750EA4106C3
:1008E00018BF52EA43067FF4C5AE50EA41047FF4D4
:1008F0000DAF52EA43057FF4EBAE12E74FF0FF3C39
:1009000006E000BF4FF0010C02E000BF4FF0010C09
:100910004DF804CD4FEA410C7FEA6C5C4FEA430C82
:1009200018BF7FEA6C5C1BD001B050EA410C0CBFD1
:1009300052EA430C91EA030F02BF90EA020F002033
:10094000704710F1000F91EA030F58BF994208BF9A
:1009500090422CBFD8176FEAE37040F00100704757
:100960004FEA410C7FEA6C5C02D150EA013C07D1AE
:100970004FEA430C7FEA6C5CD6D152EA033CD3D0F9
:100980005DF8040B704700BF8446104662468C46F3
:100990001946634600E000BF01B5FFF7B7FF002826
:1009A00048BF10F1000F01BD4DF808EDFFF7F4FF4F
:1009B0000CBF012000205DF808FB00BF4DF808EDDA
:1009C000FFF7EAFF34BF012000205DF808FB00BFFD
:1009D0004DF808EDFFF7E0FF94BF012000205DF81F
:1009E00008FB00BF4DF808EDFFF7CEFF94BF0120D4
:1009F00000205DF808FB00BF4DF808EDFFF7C4FFCD
:100A000034BF012000205DF808FB00BF4FEA410C15
:100A10007FEA6C5C02D150EA013C0AD14FEA430CF8
:100A20007FEA6C5C02D152EA033C02D14FF0000035
:100A300070474FF0010070474FEA410212F5001273
:100A400015D211D56FF47873B3EB625212D94FEA15
:100A5000C12343F0004343EA505311F0004F23FAFF
:100A600002F018BF404270474FF00000704750EA54
:100A7000013005D111F0004008BF6FF00040704711
:100A80004FF00000704700BF80F0004002E000BF60
:100A900081F0004142001FBF5FEA410392EA030F69
:100AA0007FEA226C7FEA236C6AD04FEA1262D2EBB3
:100AB0001363C1BFD218414048404140B8BF5B42B8
:100AC000192B88BF704710F0004F40F4000020F051
:100AD0007F4018BF404211F0004F41F4000121F067
:100AE0007F4118BF494292EA030F3FD0A2F10102B1
:100AF00041FA03FC10EB0C00C3F1200301FA03F1EF
:100B000000F0004302D5494260EB4000B0F5000F11
:100B100013D3B0F1807F06D340084FEA310102F1D0
:100B20000102FE2A51D2B1F1004F40EBC25008BF82
:100B300020F0010040EA03007047490040EB00004C
:100B4000013A28BFB0F5000FEDD2B0FA80FCACF14D
:100B5000080CB2EB0C0200FA0CF0AABF00EBC2507A
:100B600052421843BCBFD0401843704792F0000F68
:100B700081F4000106BF80F400000132013BB5E7BB
:100B80004FEA41037FEA226C18BF7FEA236C21D031
:100B900092EA030F04D092F0000F08BF0846704796
:100BA00090EA010F1CBF0020704712F07F4F04D164
:100BB000400028BF40F00040704712F100723CBF77
:100BC00000F50000704700F0004343F0FE4040F4A1
:100BD000000070477FEA226216BF08467FEA23635F
:100BE0000146420206BF5FEA412390EA010F40F44A
:100BF000800070474FF0000304E000BF10F0004396
:100C000048BF40425FEA000C08BF704743F096437C
:100C100001464FF000001CE050EA010208BF704797
:100C20004FF000030AE000BF50EA010208BF70471E
:100C300011F0004302D5404261EB41015FEA010C33
:100C400002BF84460146002043F0B64308BFA3F12B
:100C50008053A3F50003BCFA8CF2083AA3EBC2530D
:100C600010DB01FA02FC634400FA02FCC2F120022C
:100C7000BCF1004F20FA02F243EB020008BF20F063
:100C80000100704702F1200201FA02FCC2F12002C9
:100C900050EA4C0021FA02F243EB020008BF20EABE
:100CA000DC7070474FF0FF0C1CEAD0521EBF1CEAEC
:100CB000D15392EA0C0F93EA0C0F6FD01A4480EADA
:100CC000010C400218BF5FEA41211ED04FF00063C3
:100CD00043EA501043EA5111A0FB01310CF00040EF
:100CE000B1F5000F3EBF490041EAD3715B0040EA15
:100CF000010062F17F02FD2A1DD8B3F1004F40EBE5
:100D0000C25008BF20F00100704790F0000F0CF0B7
:100D1000004C08BF49024CEA502040EA51207F3A7B
:100D2000C2BFD2F1FF0340EAC250704740F4000056
:100D30004FF00003013A5DDC12F1190FDCBF00F047
:100D400000407047C2F10002410021FA02F1C2F1F5
:100D5000200200FA02FC5FEA310040F1000053EA91
:100D60004C0308BF20EADC70704792F0000F00F0DF
:100D7000004C02BF400010F4000F013AF9D040EAE5
:100D80000C0093F0000F01F0004C02BF490011F479
:100D9000000F013BF9D041EA0C018FE70CEAD15377
:100DA00092EA0C0F18BF93EA0C0F0AD030F0004CF7
:100DB00018BF31F0004CD8D180EA010000F00040AB
:100DC000704790F0000F17BF90F0004F084691F069
:100DD000000F91F0004F14D092EA0C0F01D14202A3
:100DE0000FD193EA0C0F03D14B0218BF084608D16C
:100DF00080EA010000F0004040F0FE4040F40000B6
:100E0000704740F0FE4040F4400070474FF0FF0C48
:100E10001CEAD0521EBF1CEAD15392EA0C0F93EA8F
:100E20000C0F69D0A2EB030280EA010C49024FEAE1
:100E3000402037D04FF0805343EA111143EA10139A
:100E40000CF000408B4238BF5B0042F17D024FF452
:100E5000000C8B4224BF5B1A40EA0C00B3EB510F2D
:100E600024BFA3EB510340EA5C00B3EB910F24BF16
:100E7000A3EB910340EA9C00B3EBD10F24BFA3EB9B
:100E8000D10340EADC001B0118BF5FEA1C1CE0D163
:100E9000FD2A3FF650AF8B4240EBC25008BF20F016
:100EA000010070470CF0004C4CEA50207F32C2BF6A
:100EB000D2F1FF0340EAC250704740F400004FF007
:100EC0000003013A37E792F0000F00F0004C02BF38
:100ED000400010F4000F013AF9D040EA0C0093F002
:100EE000000F01F0004C02BF490011F4000F013B5C
:100EF000F9D041EA0C0195E70CEAD15392EA0C0FC4
:100F000008D142027FF47DAF93EA0C0F7FF470AFFB
:100F1000084676E793EA0C0F04D14B023FF44CAF3E
:100F200008466EE730F0004C18BF31F0004CCAD1D3
:100F300030F000427FF45CAF31F000437FF43CAF0F
:100F40005FE700BF4FF0FF3C06E000BF4FF0010C31
:100F500002E000BF4FF0010C4DF804CD4FEA400213
:100F60004FEA41037FEA226C18BF7FEA236C11D05D
:100F700001B052EA530C18BF90EA010F58BFB2EB10
:100F8000030088BFC81738BF6FEAE17018BF40F090
:100F9000010070477FEA226C02D15FEA402C05D144
:100FA0007FEA236CE4D15FEA412CE1D05DF8040BC9
:100FB000704700BF844608466146FFE70FB5FFF75C
:100FC000C9FF002848BF10F1000F0FBD4DF808ED14
:100FD000FFF7F4FF0CBF012000205DF808FB00BF05
:100FE0004DF808EDFFF7EAFF34BF012000205DF85F
:100FF00008FB00BF4DF808EDFFF7E0FF94BF0120AC
:1010000000205DF808FB00BF4DF808EDFFF7D2FFA8
:1010100094BF012000205DF808FB00BF4DF808EDEB
:10102000FFF7C8FF34BF012000205DF808FB00BFB8
:101030004FEA4002B2F1FE4F0FD34FF09E03B3EBE5
:1010400012620DD94FEA002343F0004310F0004F25
:1010500023FA02F018BF404270474FF0000070477B
:1010600012F1610F01D1420205D110F0004008BF1A
:101070006FF0004070474FF00000704770B50026D9
:101080000C4D0D4C641BA410A64209D106F08EFE37
:1010900000260A4D0A4C641BA410A64205D170BD5F
:1010A00055F8043B98470136EEE755F8043B98475E
:1010B0000136F2E7488200084882000848820008AA
:1010C0004C82000803460244934200D1704703F863
:1010D000011BF9E7002B2DE9F0471F46BBBF03F1C9
:1010E00000431F4600232D2388B01446129A109DFA
:1010F0001370149BDDF84CA023F02008B8F1460FC4
:1011000005D0B8F1450F00D10135022300E00323DB
:1011100007AA049206AACDE902A2CDE9003522462B
:101120003B4600F0C5FCB8F1470F064602D1119BC3
:10113000DB0722D5B8F1460F06EB050910D133784D
:10114000302B0AD10022002320463946FFF72CFC21
:1011500018B9C5F10105CAF80050DAF80030994411
:101160000022002320463946FFF71EFC08B1CDF8C7
:101170001C903022079B4B4507D33046079B159A9E
:101180009B1B136008B0BDE8F087591C07911A70CB
:10119000F0E70346F7B5002903F8022BB6BF2D226E
:1011A0002B224942092942702BDD0DF10704A44688
:1011B0000A2791FBF7F60A46A64607FB1615632A8F
:1011C00005F13005314604F1FF340EF8015CF0DC26
:1011D0003031AEF1020504F8011C2946441C61457A
:1011E0000AD30DF10902A2EB0E02654588BF002269
:1011F0001344181A03B0F0BD11F8012B04F8012FA5
:10120000EDE7302330318370C170031DF1E700003A
:101210002DE9F04F91B00C46DDF8688016461F4668
:10122000054601F033FA036818460993FEF790FF6C
:1012300000230E93D8F800300A90073323F00703F9
:1012400003F1080294F81890D4F800B0C8F8002010
:10125000D3E90023C4E91223D4E9128A2AF0004317
:101260000B934FF0FF3240469C4B0B99FFF7CEFBA0
:1012700070BB4FF0FF324046984B0B99FFF7A8FB2D
:1012800030BB0022002340465146FFF797FB10B1C8
:101290002D2384F84330924B9248B9F1470F94BF05
:1012A0009846804603234FF0000A23612BF0040385
:1012B000236033462146284600970FAA00F0D4F950
:1012C000013040F090804FF0FF3011B0BDE8F08F5A
:1012D0004246534640465146FFF798FB48B1BAF1A3
:1012E000000FB8BF2D238048B8BF84F843307F4B30
:1012F000D3E7636809F0DF015A1C42D1062363601B
:10130000002206920EAACDE904920DAA4BF4806346
:1013100003920DF13302CDE9013223606368424646
:101320000093284653460B91FFF7D4FE0B99804655
:1013300047290D9908D1C81C02DB6368994240DD3A
:10134000A9F102095FFA89F9B9F1650F1FD84A4678
:10135000013904F150000D91FFF71BFF0E9A8246F0
:101360001318012A236102DC2268D20701D5013358
:1013700023619DF83330002B9BD02D2384F843301C
:1013800097E74729BCD1002BBAD10123B7E7B9F1C0
:10139000660F18D1002963680BDD216113B922683B
:1013A000D00702D501330B4423614FF0000AA16539
:1013B000DFE713B92268D20701D50233F4E701232E
:1013C000F2E74FF067090E9B994205DB2368216124
:1013D000D807EAD54B1CE7E70029CCBF0122C1F1B1
:1013E00002021344E0E723685A0507D42369424602
:1013F00031462846B84701302BD164E7B9F1650F73
:1014000040F2DD80D4E9120100220023FFF7CCFA7C
:10141000002833D0012331462846354AB8470130E9
:101420003FF451AFDDE90D239A4202DB2368D80770
:101430000FD5DDE9092331462846B84701303FF48E
:1014400042AF4FF0000804F11A090E9B013B4345DF
:1014500009DC23689B0700F10281E0680F9B98423A
:10146000B8BF184631E701234A4631462846B847F7
:1014700001303FF428AF08F10108E6E70D9B002B8F
:1014800038DC012331462846194AB84701303FF479
:101490001AAFDDE90D23134302D12368D907D8D54C
:1014A000DDE9092331462846B84701303FF40BAF48
:1014B0004FF0000904F11A0A0D9B5B424B4501DC19
:1014C0000E9B94E70123524631462846B847013027
:1014D0003FF4F9AE09F10109EEE700BFFFFFEF7F2E
:1014E000CC7D0008D07D0008D87D0008D47D0008A0
:1014F000DC7D00080E9AA36D9A42A8BF1A46002A06
:10150000914637DC4FF0000B29EAE97904F11A0221
:10151000D4F858A0AAEB09035B4533DCDDE90D23C1
:101520009A423BDB2368DA0738D40E9B0D99A3EB74
:101530000A02A3EB01099145A8BF9146B9F1000F3A
:1015400034DC4FF0000829EAE97904F11A0ADDE9F0
:101550000D239B1AA3EB090343457FF77AAF0123C1
:10156000524631462846B84701303FF4ACAE08F148
:101570000108ECE71346314642462846B847013099
:10158000C0D1A0E60123314628460B92B84701306E
:101590003FF499AE0B9A0BF1010BB9E73146DDE947
:1015A00009232846B8470130BFD18CE64B46314667
:1015B000284608EB0A02B8470130C2D183E60E9AEA
:1015C000012A01DCDB0737D5012342463146284694
:1015D000B84701303FF477AEDDE9092331462846AC
:1015E000B84701303FF46FAED4E912010022002366
:1015F000FFF7DAF9D8B90E9B08F10102013B314639
:101600002846B84701300ED15DE601234A463146EF
:101610002846B84701303FF456AE08F101080E9B4A
:10162000013B4345F1DC534604F15002E0E64FF044
:10163000000804F11A09F2E701234246DFE701231B
:101640004A4631462846B84701303FF43CAE08F1DF
:101650000108E3680F995B1A4345F0DCFDE64FF0A3
:10166000000804F11909F4E72DE9F04716469946F8
:101670008A680B6907469342B8BF1346336091F8F6
:1016800043200C46DDF820800AB101333360236823
:10169000990642BF336802333360256815F00605AA
:1016A00006D104F1190AE36832689B1AAB4228DCC0
:1016B00094F84320131E226818BF012392062DD4EC
:1016C0004946384604F14302C047013020D0236820
:1016D000E56803F00603042B18BF002532684FF0BD
:1016E0000006A36808BFAD1A226908BF25EAE575A0
:1016F0009342C4BF9B1AED181A34B5421AD1002088
:1017000008E00123524649463846C047013003D11C
:101710004FF0FF30BDE8F0870135C4E73020E11815
:1017200081F843005A1C94F845102244023382F891
:101730004310C5E70123224649463846C0470130D9
:10174000E6D00136D9E700002DE9FF470F7E91462C
:10175000782F80460C469A460C9D01F1430207D82B
:10176000622F0AD8002F00F0D980582F00F0A480F3
:1017700004F1420584F842703AE0A7F16303152BA7
:10178000F6D801A151F823F0E1170008F517000879
:101790007117000871170008711700087117000809
:1017A000F517000871170008711700087117000875
:1017B000711700080319000825180008E51800082B
:1017C0007117000871170008251900087117000823
:1017D000251800087117000871170008ED18000897
:1017E0002B681A1D1B682A6004F1420584F84230F8
:1017F0000123A4E020682968060601F104030AD544
:101800000E682B60002E03DA2D23764284F84330D5
:101810000A235E4819E00E6810F0400F2B6018BFD5
:1018200036B2EFE72B682068191D2960010601D543
:101830001E6802E04606FBD51E886F2F0CBF0823EA
:101840000A235248002184F843106568002DA8BF80
:101850002168A560A4BF21F0040121600EB9002D0C
:101860004DD01546B6FBF3F103FB1167C75D05F8D4
:10187000017D3746BB420E46F4D9082B0BD12368B5
:10188000DE0708D5236961689942DEBF302305F879
:10189000013C05F1FF35521B22614B462146404673
:1018A000CDF800A003AAFFF7DFFE01304CD14FF0C6
:1018B000FF3004B0BDE8F087344881F845702968EE
:1018C000236851F8046B29601D0614D5DF0744BF57
:1018D00043F0200323601EB9236823F02003236014
:1018E0001023AFE7236843F02003236078232848C0
:1018F00084F84530E3E7590648BFB6B2E6E7154637
:10190000BBE72B682668181D6169286035061B68CF
:1019100001D5196002E07006FBD519800023154639
:101920002361BAE72B6800211A1D2A601D686268CE
:10193000284600F0B7FE08B1401B60606368236171
:10194000002384F84330A8E72A46494640462369E5
:10195000D0470130ABD023689B0713D4E068039BCA
:101960009842B8BF1846A4E701233246494640468C
:10197000D04701309BD00135E36803995B1AAB4235
:10198000F2DCEBE7002504F11906F5E7DE7D00083F
:10199000EF7D00082DE9F74F03690C690746A34264
:1019A000C0F28280013C00F1140501F1140805EB3E
:1019B0008403019358F8243055F8242001339A42C7
:1019C000B2FBF3F64FEA840B08EB840931D34FF0F6
:1019D000000E4046AC46F24650F8042B93B206FB8C
:1019E00003E3120C4FEA134E9BB206FB02E2AAEB92
:1019F0000303DCF800A04FEA124E1FFA8AFA5344A0
:101A0000DCF800A092B2C2EB1A4202EB23429BB276
:101A100043EA024381454FEA224A4CF8043BDBD2B9
:101A200055F80B302BB9019B043B9D421A462FD32E
:101A30003C61384601F0D0F8002825DB28464FF0FD
:101A4000000C013658F8041BD0F800E08BB2ACEB68
:101A500003031FFA8EF213440A0CC2EB1E4202EB80
:101A600023429BB243EA0243C1454FEA224C40F86D
:101A7000043BE7D255F8242005EB840322B9043B4C
:101A80009D421A460AD33C61304603B0BDE8F08F50
:101A90001268043B002ACBD1013CC6E71268043B24
:101AA000002AF0D1013CEBE70020EEE70000000047
:101AB0002DE9F04F16461F46446A99B00546CDE918
:101AC0000467DDF8948074B9102000F0E3FD02464D
:101AD000686220B9EA21A84BA84801F081FAC0E960
:101AE00001440460C4606B6A196851B15A680123EB
:101AF00093404A608B60284600F030FE00226B6AFB
:101B00001A603B1EAFBF0023012223F00043059360
:101B1000A8BFC8F80030DDF81490994BB8BFC8F8DA
:101B2000002033EA090319D142F20F73249A13609B
:101B3000C9F31303334300F07F85269B53B9914BC0
:101B400022E0914B03930833269A1360039819B04F
:101B5000BDE8F08F8B4B03930333F5E7DDE90434E5
:101B6000CDE90C34DDE90C0100220023FEF71CFF57
:101B7000804658B10123249A1360269B002B00F065
:101B8000588582481860431E0393DFE716AB019324
:101B900017AB00932846DDE90C2301F0C5F8C9F323
:101BA0000A548346002C7FD0DDE90C010D9BA4F282
:101BB000FF34C3F3130343F07F5141F44011CDF8D8
:101BC0004C800022724BFEF7CFFA65A3D3E90023C5
:101BD000FEF782FC64A3D3E90023FEF7C7FA0646AA
:101BE00020460F46FEF70EFC61A3D3E90023FEF763
:101BF00073FC02460B4630463946FEF7B7FA0646F6
:101C00000F46FEF719FF0022824600233046394670
:101C1000FEF7D4FE48B15046FEF7F4FB32463B4691
:101C2000FEF7C2FE08B90AF1FF3ABAF1160F58D80A
:101C3000DDE90C01574B03EBCA03D3E90023FEF7A0
:101C4000BDFE00284FD000230AF1FF3A0F93169BE8
:101C50001C1B631E099349BFC4F1010300230693B3
:101C6000002354BF06930993BAF1000F3DDB099B93
:101C7000CDF838A05344099300230A93229B092BE3
:101C800000F28C80052BC4BF043B2293229BC8BF6B
:101C90000024A3F10203D8BF0124032B00F28A80A1
:101CA000DFE803F02D4F4D5BDDE916431C4404F2E1
:101CB0003243202BC3BFC3F1400304F2124009FAA0
:101CC00003F3C3F12003C6BF26FA00F0184306FA57
:101CD00003F0FEF787FB0123A1F1F871013C139398
:101CE0006FE70123B2E70F90B1E7069BA3EB0A036E
:101CF0000693CAF100030A9300230E93BEE7002364
:101D00000B93239B002B58DC4FF001094B46CDF879
:101D10002090CDF88C900022686A4260042202F183
:101D200014069E4241684ED9284600F0D7FC039025
:101D300000284CD102464FF4D571174BCCE6012355
:101D4000DEE700230B93239B0AEB030909F1010350
:101D5000012B0893B8BF0123DDE70123F2E700BFA1
:101D600061436F63A787D23FB3C8608B288AC63FA1
:101D7000FB799F501344D33F0D7E0008247E00085A
:101D80000000F07F097E0008007E0008DD7D00086D
:101D90000000F83F607F0008A27E000801240023B5
:101DA0000B9422934FF0FF3900221223CDF820909C
:101DB0002392B0E701230B93F4E7DDF88C904B46B8
:101DC000CDF82090A7E7013141605200A7E76B6A88
:101DD000039A1A60089B0E2B00F2A880002C00F0DA
:101DE000A580BAF1000F34DD9A4A0AF00F0302EB26
:101DF000C3031AF4807FD3E90034CDE910344FEAED
:101E00002A1416D0DDE90C01934B0327D3E90823EC
:101E1000FEF78CFCCDE9040104F00F048E4E54B99A
:101E2000DDE91023DDE90401FEF780FCCDE90401C2
:101E300029E00227F2E7E10708D5DDE91001D6E93C
:101E40000023FEF749FBCDE9100101376410083685
:101E5000E5E700F0A580DDE90C01CAF100047D4B47
:101E600004F00F0203EBC203D3E90023FEF734FBB7
:101E700002270023CDE90401774E2411002C40F005
:101E80008480002BD2D10F9B002B00F08B80DDE9EA
:101E90000434CDE91034DDE9100100226F4BFEF768
:101EA0008DFD00287ED0089B002B7BD0B9F1000F60
:101EB00038DDDDE910010022694BFEF70DFB4C46D1
:101EC000CDE904010AF1FF3801373846FEF79AFAE6
:101ED000DDE90423FEF700FB0022624BFEF746F922
:101EE000A1F15076CDE910011196002C5DD1DDE90C
:101EF000040100225C4BFEF737F902460B46CDE9A0
:101F000004233346109AFEF777FD002840F09C82A8
:101F1000DDE90401109A06F10043FEF74FFD0028A9
:101F200040F09082DDE90C34CDE90434179B002B9E
:101F3000C0F25281BAF10E0F00F34E81454B03EB14
:101F4000CA03D3E90034CDE90634239B002B80F289
:101F5000DB80089B002B00F3D78040F07282DDE924
:101F600006010022404BFEF7B7FADDE90423FEF735
:101F700039FD089C2646002840F048823123039F03
:101F80000AF1010A07F8013B44E2E20705D5D6E968
:101F90000023FEF7A1FA01230137641008366DE72C
:101FA000022770E7D046089C8FE70399294B21440C
:101FB00012910B9903EBC403DDE9106753E9022387
:101FC000002955D000202949FEF7B0FB3B46324698
:101FD000FEF7CAF8CDE91001039FDDE90401FEF721
:101FE0002BFD0446FEF70EFA02460B46DDE904011E
:101FF000FEF7BAF802460B463034CDE90423DDE99A
:10200000102307F8014BFEF7D9FC002874D1DDE955
:10201000042300201149FEF7A7F8DDE91023FEF79D
:10202000CDFC002840F0B780129B9F423FF47AAF6E
:10203000DDE9100100220A4BFEF74EFA0022CDE93D
:102040001001DDE90401064BFEF746FACDE9040173
:10205000C3E700BF607F0008387F00080000F03F42
:102060000000244000001C40000014400000E03F3D
:1020700030463946FEF730FA129BCDE91001039C39
:102080001493DDE90401FEF7D7FC1590FEF7BAF9C9
:1020900002460B46DDE90401FEF766F8159B06468D
:1020A000303304F8013B129B0F469C424FF0000274
:1020B00024D1DDE91001B04BFEF758F802460B467B
:1020C00030463946FEF798FC002863D1DDE910233D
:1020D0000020A949FEF748F802460B46304639462B
:1020E000FEF76CFC00283FF41DAF149F7B1E149379
:1020F00017F8013C302BF8D0C2463BE09F4BFEF76F
:10210000EBF9CDE90401BCE7039FDDE90489DDE9D2
:10211000062340464946FEF709FBFEF78DFC0446C0
:10212000FEF770F9DDE90623FEF7D6F902460B4605
:1021300040464946FEF718F804F1300607F8016BEF
:10214000039EDDF820C0BE1BB44502460B4636D1C7
:10215000FEF70CF8DDE9062380468946FEF74CFCC5
:1021600058BBDDE9062340464946FEF71DFC08B191
:10217000E10722D42846594600F0F0FA00233B70CC
:10218000249B0AF101001860269B002B3FF4DEAC73
:102190001F60DBE427463B461F4613F8012D392A12
:1021A00007D1039A9A42F7D13022039908F1010826
:1021B0000A701A7801321A709EE7D046EBE70022C7
:1021C0006E4BFEF789F90022002380468946FEF710
:1021D000EBFB00289BD0CDE70B9A002A00F0D080C3
:1021E000229A012A00F3AE80139A002A00F0A680FA
:1021F00003F233430A9C069F069A01211A44069271
:10220000099A28461A44099200F05EFB0646002F00
:102210000CDD099B002B09DDBB42A8BF3B46069A9B
:10222000FF1AD21A0692099AD31A09930A9BF3B19C
:102230000B9B002B00F0A880002C10DD31462246BD
:10224000284600F0FFFB5A4601460646284600F0A5
:1022500051FB80465946284600F080FAC3460A9B47
:102260001A1B04D05946284600F0ECFB8346012196
:10227000284600F029FB0E9B0446002B40F3868085
:102280001A460146284600F0DDFB229B0446012B3E
:102290007FDD4FF00008236904EB8303186900F029
:1022A000C5FAC0F12000099B184410F01F0000F08F
:1022B0009280C0F12003042B40F38A80C0F11C00FF
:1022C000069B074403440693099B03440993069B1A
:1022D000002B05DD59461A46284600F00DFC8346C2
:1022E000099B002B05DD21461A46284600F004FC18
:1022F00004460F9B002B70D02146584600F06CFC22
:1023000000286ADA002359460A22284600F048FAD3
:102310000B9B83460AF1FF3A002B00F09481314673
:1023200000230A22284600F03BFAB9F1000F0646C6
:1023300000F39380229B022B57DC8EE0169BC3F1A7
:10234000360357E7089B5C1E0A9BA342B7BF0A9B54
:102350001C1BE21A0E9BBEBF0A949B180E93089B8F
:10236000B8BF0024002BBBBF069B089A069F9F1A8C
:10237000ACBF089B00233FE70000E03F0000244083
:102380000A9C069F0B9E42E70A9A6BE7229B012B51
:1023900019DC049BBBB9059BC3F313039BB9059BD5
:1023A00023F000431B0D1B0583B14FF00108069B72
:1023B00001330693099B013309930E9B002B7FF495
:1023C0006AAF01206FE74FF00008F6E79846F4E7A0
:1023D0003FF47DAF18461C3072E7089B002B36DCBB
:1023E000229B022B33DDDDF82090B9F1000F0DD1D7
:1023F00021464B460522284600F0D2F90146044604
:10240000584600F0E9FB00283FF7B8AD239B039F37
:102410006FEA030A4FF000082146284600F09EF9B3
:10242000002E3FF4A7AEB8F1000F05D0B04503D0A1
:102430004146284600F092F93146284600F08EF9D0
:1024400098E600242646E1E7C246264696E50B9B21
:10245000DDF82090002B00F0FD80002F05DD3146D7
:102460003A46284600F048FB0646B8F1000F5CD01B
:102470002846716800F032F9074628B9024640F252
:10248000EA217F4BFFF728BB326906F10C010232CB
:1024900092000C3000F014F901223946284600F071
:1024A0002BFBB0460646039B01330893039B4B442A
:1024B0000A93049B03F001030993089B2146013B07
:1024C00058460493FFF766FA0346414630330690B8
:1024D00058460B9300F080FB324681462146284641
:1024E00000F096FBC26807460B9B02BB01465846AC
:1024F00000F072FB02460B9B39462846CDE90B32B1
:1025000000F02CF9229B0C9A089F43EA0201099BD8
:102510000B430B9B0DD1392B29D0B9F1000F01DDF5
:10252000069B3133049A137076E73046B9E70122EF
:10253000E2E7B9F1000F06DB229941EA090909999E
:1025400059EA010120D1002AECDD59460122284632
:10255000089300F0D1FA2146834600F03DFB0028A5
:10256000089B02DCDED1DA07DCD5392BD8D1392340
:10257000049A13703B461F4617F8012C013B392A79
:1025800050D001321A7047E7002A03DD392BEED014
:102590000133C7E7089A0A9902F8013C8A422AD017
:1025A000594600230A22284600F0FAF8B04583462F
:1025B0004FF000034FF00A024146284607D100F0D1
:1025C000EFF880460646089B0133089375E700F054
:1025D000E7F83146804600230A22284600F0E0F85A
:1025E0000646F0E7B9F1000FCCBF4F4601274FF088
:1025F0000008039A1744594601222846089300F020
:102600007BFA2146834600F0E7FA0028B2DC02D1CB
:10261000089BDB07AED43B461F4613F8012D302A3A
:10262000FAD0F9E6039A9A42A5D131230AF1010AB8
:1026300079E7144BFFF7A8BA269B002B7FF481AAF9
:10264000114BFFF7A1BAB9F1000F03DC229B022B5B
:102650003FF7CBAE039F21465846FFF79BF9039AFD
:1026600000F1300307F8013BBA1A9145BADD59462B
:1026700000230A22284600F093F88346EBE700BFC8
:10268000A27E0008DC7D0008007E0008004870473C
:1026900054010020024B0146186800F01DBC00BF29
:1026A00000000020034610B5C9B202449342184608
:1026B00001D1002003E0047801338C42F6D110BD33
:1026C0000A44914200F1FF3300D1704710B511F870
:1026D000014B914203F8014FF9D110BD70B5466A24
:1026E00004460D4676B91020FFF7D4FF024660621B
:1026F00020B96621174B184800F072FCC0E901664A
:102700000660C660666AF36883B1636ADB6853F883
:102710002500B8B9012101FA05F6721D2046920084
:1027200000F05EFB60B1C0E901560EE021220421F9
:10273000204600F055FB636AF060DB68002BE4D1B3
:10274000002070BD026843F825200023C0E9033350
:10275000F7E700BF0D7E0008B37E000870B5466A3B
:1027600005460C4676B91020FFF794FF02466862D2
:1027700020B98A21084B094800F032FCC0E9016603
:102780000660C6603CB16B6A6268DB6853F8221071
:10279000216043F8224070BD0D7E0008B37E000822
:1027A0002DE9F04107460C461E4600200D6901F157
:1027B000140CDCF80030013099B202FB01611E0CF0
:1027C0000B0C02FB063389B201EB034185424FEA51
:1027D00013464CF8041BECDC0EB3A368AB4219DCC7
:1027E000616838460131FFF779FF804628B9024613
:1027F000B5210C4B0C4800F0F3FB226904F10C01ED
:10280000023292000C30FFF75BFF21463846FFF79B
:10281000A5FF444604EB850301355E612561204632
:10282000BDE8F081A27E0008B37E0008020C12040D
:102830000346CAB90304102013F07F4F04BF1B02E4
:10284000083013F0704F04BF1B01043013F0404FE9
:1028500004BF9B000230002B05DB13F0804F00F11A
:10286000010008BF202070470020E5E7036802460A
:1028700013F007000BD0D90721D4980749BF5B0894
:102880009B08012013605CBF02201360704799B25F
:1028900009B910201B0CD9B209B908301B0A190755
:1028A00004BF1B090430990704BF9B080230D907F5
:1028B00003D45B0800F1010003D0136070470020CF
:1028C000704720207047000010B50C460121FFF72B
:1028D00005FF024628B94FF4A071044B044800F0EC
:1028E0007FFB01234461036110BD00BFA27E00088D
:1028F000B37E00082DE9F04F91460A69D9F81030EF
:102900000C469A42BEBF0B464C4699462769D9F8F9
:1029100010A0A368616807EB0A06B34285B0B8BF90
:102920000131FFF7DBFE30B9024640F25D11434B47
:10293000434800F055FB00F114052B46002205EB3F
:102940008608434521D304F1140303EB870709F1FB
:10295000140303EB8A0202923A1B153A22F0030297
:10296000043204F115018F4238BF04220192029A09
:1029700003939A420CD8002E03DD58F8043D002B37
:1029800059D0066105B0BDE8F08F43F8042BD8E7B5
:10299000B3F800A0BAF1000F23D0A9464FF0000C05
:1029A00004F1140E5EF8042BD9F800101FFA82FB14
:1029B00089B20AFB0B116144D9F800C0120C4FEA2E
:1029C0001C4C0AFB02C202EB114289B241EA0241ED
:1029D00077454FEA124C49F8041BE3D8019A45F8B1
:1029E00002C0039A0433B2F80290B9F1000F20D06C
:1029F000AE464FF0000A296804F1140CBCF800B090
:102A0000BEF8022089B209FB0B22924441EA0A4136
:102A10004EF8041B5CF8042BBEF80010120C09FBE6
:102A20000211674501EB1A414FEA114AE6D8019AB3
:102A3000A95004359BE7013E9DE700BFA27E000838
:102A4000B37E00082DE9F843154612F0030206464E
:102A50000F4607D0254C013A002354F82220FFF7F7
:102A60009FFE0746AD103DD0746A7CB91020FFF779
:102A700011FE0246706228B94FF4D7711C4B1D48F5
:102A800000F0AEFAC0E901440460C460D6F82480C6
:102A9000D8F808404CB940F271213046FFF714FFD6
:102AA00000230446C8F8080003604FF00009EB0754
:102AB0000AD5394622463046FFF71CFF8046394684
:102AC0003046FFF74BFE47466D100BD0206838B9F3
:102AD000224621463046FFF70DFF2060C0F80090E7
:102AE0000446E4E73846BDE8F88300BF28800008C4
:102AF0000D7E0008B37E00082DE9F0470C4607461E
:102B000091462369496803EB6218A3684FEA621A89
:102B100008F10106B3420BDB3846FFF7DFFD05463F
:102B200048B9024640F2D911294B2A4800F058FA18
:102B300001315B00EEE7002300F1140100F1100207
:102B40001846534537DB20692AEAEA7A04F1140370
:102B500019F01F0901EB8A0103EB80002FD08A4690
:102B60004FF0000CC9F1200E1A6802FA09F242EA8D
:102B70000C024AF8042B53F8042B984222FA0EFC5C
:102B8000F2D8031B153B23F00303043304F11502B1
:102B9000904238BF042341F803C0BCF1000F01D0BC
:102BA00008F10206013E384621462E61FFF7D6FDA8
:102BB0002846BDE8F08742F8040F0133C1E7043925
:102BC00053F8042B984241F8042FF9D8EAE700BFE4
:102BD000A27E0008B37E000803460A69006930B58A
:102BE000801A0DD11433143103EB820401EB8201FE
:102BF00054F8045D51F8042D954202D004D301200D
:102C000030BDA342F4D3FBE74FF0FF30F8E70000FC
:102C10002DE9F84F0D460746114628461446FFF7A2
:102C2000DBFF061E11D131463846FFF757FD02463D
:102C300028B940F232213A4B3A4800F0D1F9012349
:102C4000C0E904361046BDE8F88FA4BF23462C46E1
:102C500038466168A6BF1D4600260126FFF73EFDE7
:102C6000024618B94FF410712D4BE5E702F1140834
:102C7000C2464FF0000C2769C6602E6904F11400AB
:102C800005F1140900EB870E09EB8606103454F8A1
:102C900004BF59F8043B1FFA8BF18C4499B21B0C0A
:102CA000ACEB0101C3EB1B4303EB214389B24FEAB9
:102CB000234C4E4541EA03434AF8043BE7D8731BD3
:102CC000153B23F0030315350433AE4238BF04230C
:102CD000184443441E46054675450ED30EF10301C4
:102CE000091A21F003010338864538BF0021194431
:102CF00051F8043D8BB11761A4E755F8048B1FFA16
:102D000088F161440C1404EB184489B241EA04418F
:102D10004FEA244C46F8041BDEE7013FE8E700BF1A
:102D2000A27E0008B37E00082DE9F3410121DDE910
:102D3000087690461D46FFF7D1FC044630B902469E
:102D400040F20A31244B254800F04AF9C5F3130339
:102D5000C5F30A552DBB0193B8F1000326D0684690
:102D60000093FFF783FD0099F0B1019AC0F12003B1
:102D700002FA03F30B43C24063610192019B002BF3
:102D800014BF02210121A3612161C5B1A5F2334520
:102D90000544C0F135003D603060204602B0BDE81A
:102DA000F08143F48013D6E76161E7E701A8FFF7FC
:102DB0005DFD0121019B216163612030E5E704EBAA
:102DC0008103A0F2324038601869FFF72FFDC0EB95
:102DD00041113160E1E700BFA27E0008B37E000828
:102DE00070B5A1FB025434B9294600F075F80646C7
:102DF00028B9304670BD0C2200260260F9E72A4649
:102E00002146FEF75FF9F4E738B50546002940D0C2
:102E100051F8043C0C1F002BB8BFE41800F022F955
:102E20001C4A136833B9636014602846BDE8384013
:102E300000F01EB9A34208D9206821188B4201BFB7
:102E400019685B6809182160EDE71A465B680BB1E9
:102E5000A342FAD911685018A0420BD1206801444E
:102E6000501883421160E0D118685B68014411601A
:102E70005360DAE702D90C232B60D6E720682118CB
:102E80008B4201BF19685B68091821606360546058
:102E9000CBE738BDFC01002070B50E4E0C46316802
:102EA000054611B900F08CF830602146284600F044
:102EB00087F8431C0AD0C41C24F00304A04207D0A6
:102EC000211A284600F07CF8013001D14FF0FF3480
:102ED000204670BD000200202DE9F041CD1C25F0F8
:102EE000030508350C2D38BF0C25002D074601DBE6
:102EF000A94205D90C2300263B603046BDE8F0818D
:102F00002E4E00F0AFF833681C4634BB29463846D5
:102F1000FFF7C2FF431C04464DD134682646002EFD
:102F200040D123683146384604EB030800F048F8E6
:102F300080453AD1216803356D1A25F0030508351F
:102F40000C2D38BF0C2538462946FFF7A5FF013068
:102F50002BD023682B4423600EE02268521B1ED422
:102F60000B2A16D96119A342256018BF59606368FE
:102F700008BF316062514B60384604F10B0600F027
:102F800077F826F00706231DF21AB6D09B1BA35034
:102F9000B3E76268A3420CBF32605A60ECE7234695
:102FA0006468B2E734467668B9E70C2338463B607C
:102FB00000F05EF8A1E72560DEE700BFFC0100201D
:102FC00038B50023054D044608462B6001F096FBFA
:102FD000431C02D12B6803B1236038BD04020020DA
:102FE0001FB514461A46094B05461B68D8684CB1F4
:102FF000074BCDE9013400912B46064900F00EF84D
:1030000000F062FA044B1C46F3E700BF000000200A
:1030100034800008418000086F8000080EB403B5BA
:10302000014603AB054853F8042B0068019300F0F8
:103030004DF802B05DF804EB03B0704700000020CB
:1030400082B001B901A942B14BB113780B6012787B
:10305000101E18BF012002B070471046FBE76FF04A
:103060000100F8E7014800F0EBBB00BF08020020B8
:10307000014800F0E6BB00BF08020020936810B4CE
:10308000013B002B936007DA9469A34201DB0A2914
:1030900002D110BC00F04AB91368581C10601970B6
:1030A000084610BC7047F8B506460F461446D518BA
:1030B000AC4201D1002007E03A46304614F8011B2B
:1030C000FFF7DCFF431CF3D1F8BD00002DE9F04F02
:1030D0000D461446984606469DB018B183690BB953
:1030E00000F010FB894B9D421BD175686B6ED907B0
:1030F00005D4AB899A0502D4A86D00F0A1FBAB8979
:103100001B0701D52B69EBB92946304600F06EF953
:10311000C0B16B6EDC070ED54FF0FF301DB0BDE8BF
:10312000F08F7B4B9D4201D1B568DFE7794B9D4223
:1031300008BFF568DAE7AB899805EDD4A86D00F013
:1031400080FBE9E70023099320238DF82930302301
:103150004FF00109CDF80C80DFF8BC818DF82A30E2
:1031600023469A4613F8012B0AB1252AF9D1BAEB66
:10317000040B0BD05B46224629463046FFF793FFEF
:10318000013000F0AA80099A5A4409929AF8003056
:10319000002B00F0A28000234FF0FF32CDE9052381
:1031A0000AF1010A049307938DF853301A93544699
:1031B000052214F8011B5848FFF774FA049AD8B98D
:1031C000D10644BF20238DF85330130744BF2B236F
:1031D0008DF853309AF800302A2B15D05446002031
:1031E0004FF00A0C079A214611F8013B303B092B9E
:1031F0004ED9B0B1079214E0A0EB080309FA03F32B
:103200001343A2460493D2E7039B191D1B68039145
:10321000002BBBBF5B4242F0020207930793B8BF8B
:10322000049223782E2B0CD163782A2B35D1039B63
:1032300002341A1D1B680392002BB8BF4FF0FF33F6
:103240000593DFF8D8A0032250462178FFF72AFA29
:1032500040B14023A0EB0A0003FA00F0049B0134C4
:103260000343049314F8011B06222D488DF82810FF
:10327000FFF718FA00283FD02A4B1BBB039B0733EC
:1032800023F0070308330393099B3B44099367E743
:103290000C4601200CFB0232A5E700234FF00A0C7C
:1032A000194601340593204610F8012B303A092ABB
:1032B00003D9002BC5D00591C3E7044601230CFBBD
:1032C0000121F0E703AB00932A463046164B04A9D0
:1032D000FDF79EFF0746781CD6D16B6ED90705D443
:1032E000AB899A0502D4A86D00F0ABFAAB895B06F6
:1032F0003FF512AF099811E703AB00932A46304619
:10330000094B04A9FEF720FAE4E700BFAC810008EE
:10331000CC8100088C8100087A8000088080000839
:103320008480000811120008A7300008F8B50E4686
:103330001446054618B183690BB900F0E3F9214B37
:103340009C422BD16C68A369A360A3891A072FD56F
:1033500023696BB323692068F6B2C01A63693746E4
:10336000834204DC2146284600F038F930BBA368CC
:103370000130013BA36023685A1C22601E70636900
:10338000834204D0A389DB0706D50A2E04D1214647
:10339000284600F023F988B93846F8BD0A4B9C420C
:1033A00001D1AC68CFE7094B9C4208BFEC68CAE783
:1033B0002146284600F01AF80028CBD04FF0FF37FE
:1033C000EAE700BFAC810008CC8100088C810008CE
:1033D0000346084641B1FF2A04D98A224FF0FF3044
:1033E0001A60704701200A7070470000324B70B5B8
:1033F0001D6806460C4625B1AB6913B9284600F096
:1034000081F92E4B9C420FD16C68A389B4F90C2032
:1034100019072CD4DD0611D40923336042F0400390
:103420004FF0FF30A3813EE0254B9C4201D1AC68B8
:10343000EBE7244B9C4208BFEC68E6E7580712D53F
:10344000616B41B104F14403994202D03046FFF769
:10345000DBFC00236363A38923F02403A3810023FF
:10346000636023692360A38943F00803A381236970
:103470004BB9A38903F42073B3F5007F03D0214631
:10348000304600F005FAA089B4F90C2010F00103D1
:103490000AD00023A36063695B42A361236943B937
:1034A00010F08000BAD170BD810758BF6369A36076
:1034B000F4E70020F7E700BF00000020AC8100081F
:1034C000CC8100088C810008062008B500F092FA33
:1034D000012001F0E3F800008A89F8B505461007DD
:1034E0000C4657D44B68002B04DC0B6C002B01DC22
:1034F0000020F8BDE66A002EFAD0002312F48052B4
:103500002F682B6032D0606DA3895A0705D5636898
:10351000C01A636B0BB1236CC01A00230246E66A23
:103520002846216AB047431CA38906D129681D2972
:103530002CD8294ACA40D60728D5002262602269C1
:10354000D904226004D5421C01D12B6803B96065FF
:10355000616B2F600029CBD004F14403994202D063
:103560002846FFF751FC00206063C2E7216A01236F
:103570002846B047411CC7D12B68002BC4D01D2B57
:1035800001D0162B01D12F60B2E7A38943F040038D
:10359000A381AEE70F69002FAAD0930718BF0023BD
:1035A0000E6808BF4B69F61B0F608B60002E9FDD15
:1035B00033463A462846216AD4F828C0E047002816
:1035C00006DCA3894FF0FF3043F04003A38190E76E
:1035D0000744361AEAE700BF0100402038B50B69FE
:1035E00005460C4613B90025284638BD18B1836935
:1035F0000BB900F087F8144B9C421BD16C68B4F9EE
:103600000C30002BEFD0626ED00704D4990502D4A1
:10361000A06D00F015F928462146FFF75DFF636EA7
:103620000546DA07E0D4A3899B05DDD4A06D00F040
:1036300008F9D9E7054B9C4201D1AC68DFE7044BA0
:103640009C4208BFEC68DAE7AC810008CC81000836
:103650008C810008002310B50446C0E90033C0E99E
:103660000433836081814366C281836119460822E5
:103670005C30FDF727FD054B24626362044BA362B7
:10368000044BE362044B236310BD00BF2D3A0008D6
:103690004F3A0008873A0008AB3A0008014900F0A9
:1036A000AFB800BFDD350008682270B54D1E554328
:1036B0000E4605F17401FFF70FFC044640B10021EE
:1036C000C0E900160C30A06005F16802FDF7FAFCB5
:1036D000204670BD014800F0B3B800BF09020020C9
:1036E000014800F0AEB800BF09020020014800F018
:1036F000A7B800BF0A020020014800F0A2B800BF2E
:103700000A02002010B50446FFF7F0FFA3691BB1C1
:10371000BDE81040FFF7F0BFC4E912332365134B37
:10372000134A1B68A262A34208BF0123204608BFB8
:10373000A36100F01FF86060204600F01BF8A06055
:10374000204600F017F800220421E0606068FFF7CF
:1037500081FF01220921A068FFF77CFF02221221CC
:10376000E068FFF777FF0123A361D1E7C87D000878
:103770009D360008F8B50746FFF7ACFF1E4B1E68E4
:10378000B36913B93046FFF7BDFF4836D6E90134B7
:10379000013B03D533680BB33668F7E7B4F90C5037
:1037A000D5B9164B04F15800E360656600F047F8A0
:1037B000FFF796FF08222946C4E90155C4E90455DC
:1037C0002560A56104F15C00FDF77CFCC4E90D55A2
:1037D000C4E912552046F8BD6834D9E704213846BB
:1037E000FFF762FF044630600028D5D1FFF778FF6D
:1037F0000C233B60EEE700BFC87D00080100FFFF1F
:103800002DE9F84306468846002700F14804D4E92C
:103810000195B9F1010905D52468002CF7D1384686
:10382000BDE8F883AB89012B07D9B5F90E30013318
:1038300003D029463046C04707436835E9E770475B
:103840007047704770B50E46B1F90E101446002946
:103850001D4696B008DA0022B6F90C302A601A0626
:1038600010D44FF480630EE06A4600F045F900285A
:10387000F1DB019A02F47042A2F500535A425A4118
:103880002A60EEE740230020236016B070BD0000E0
:103890008B8973B59D0706460C4607D504F147038F
:1038A000236023610123636102B070BD6A4601ABEE
:1038B000FFF7C8FF009905463046FFF70DFB48B9F2
:1038C000B4F90C309A05EFD423F0030343F002035C
:1038D000A381E3E70D4BB362A389206043F080032B
:1038E000A381009B20616361019B5BB13046B4F909
:1038F0000E1000F013F928B1A38923F0030343F05D
:103900000103A381A0890543A581CDE79D36000869
:10391000884210B501EB020402D98442234607D83D
:10392000431EA14208D011F8012B03F8012FF8E73C
:10393000014602448A4200D110BD13F8014D02F83D
:10394000014DF7E72DE9F041804614460E4621B9B6
:103950001146BDE8F041FFF7BFBA2AB9FFF754FAA4
:1039600025462846BDE8F08100F0FAF88442074673
:1039700002D8B4EB500F12D821464046FFF7ACFAFC
:1039800005460028EDD0BC422246314628BF3A46C3
:10399000FEF796FE31464046FFF736FAE1E7354638
:1039A000DFE71F2938B504460D4604D91623036006
:1039B0004FF0FF3038BD426C12B152F821304BB994
:1039C000204600F031F82A4601462046BDE838403E
:1039D00000F018B8012B0AD0591C03D1162303603C
:1039E0000120E7E70024284642F8254098470020B8
:1039F000E0E70000024B01461868FFF7D2BF00BFA6
:103A00000000002038B50023064D04460846114644
:103A10002B6000F03BFE431C02D12B6803B12360F6
:103A200038BD00BF0402002000F02EBE10B50C46C9
:103A3000B1F90E1000F09CF80028ABBF636DA389AC
:103A40001B1823F48053ACBF6365A38110BD2DE91F
:103A5000F0411F468B890546DB050C46164605D509
:103A600002230022B1F90E1000F068F8A389324653
:103A700023F48053A38128463B46B4F90E10BDE8D9
:103A8000F04100F017B810B50C46B1F90E1000F077
:103A900055F8431CA38915BF606523F4805343F494
:103AA0008053A38118BFA38110BDB1F90E1000F09F
:103AB00013B8000038B50446084611460022054DEB
:103AC0002A601A4600F000FE431C02D12B6803B1A5
:103AD000236038BD0402002038B50023054D04469C
:103AE00008462B6000F0FEFD431C02D12B6803B199
:103AF000236038BD0402002038B50023064D04467B
:103B0000084611462B6000F0F0FD431C02D12B68E3
:103B100003B1236038BD00BF0402002038B5002384
:103B2000054D044608462B6000F0E4FD431C02D11D
:103B30002B6803B1236038BD0402002038B5044669
:103B4000084611460022054D2A601A4600F0D4FDB1
:103B5000431C02D12B6803B1236038BD040200204E
:103B600051F8043C181F002BBCBF0B58C0187047FD
:103B700038B50446084611460022054D2A601A460B
:103B800000F092FD431C02D12B6803B1236038BDC5
:103B9000040200200C480D490D4A002302E0D458CD
:103BA000C4500433C4188C42F9D30A4A0A4C002387
:103BB00001E013600432A242FBD300F0C3FDFDF725
:103BC0005DFA00F0CBFB704700000020E001002010
:103BD00050820008E001002030040020FEE70000D1
:103BE00008B500222021024800F0FCFF08BD00BFFC
:103BF0000008014000B587B08DF817204FF48033DE
:103C00000293012301930DF1170200920A46014627
:103C1000044802F027F810B907B05DF804FBFFF77D
:103C2000DFFFF9E76002002000B587B00A460023F5
:103C30008DF817304FF480330293012301930DF177
:103C4000170100910146064802F0BEF820B99DF820
:103C5000170007B05DF804FBFFF7C2FFF7E700BFEE
:103C60006002002000B585B04FF480330293022338
:103C70000193009201230A460146054802F0A4F888
:103C800010B905B05DF804FBFFF7AAFFF9E700BF24
:103C90006002002008B50A460146EC20FFF7AAFFA3
:103CA00008BD08B50146EC20FFF7BEFF08BD08B50A
:103CB0000A460146EC20FFF7D5FF08BD08B50A46C5
:103CC0000146EC20FFF7CEFF08BD08B5F320FFF753
:103CD000E8FF00F0090008BD38B5314C21468820C6
:103CE000FFF7E5FFA11C8A20FFF7E8FF211D8C20CC
:103CF000FFF7E4FFA11D8E20FFF7D9FF04F10801B3
:103D00009020FFF7DBFF04F10A019220FFF7D6FFB6
:103D100004F10C019420FFF7D1FF04F10E0196206D
:103D2000FFF7CCFF04F110019820FFF7C7FF04F163
:103D300012019A20FFF7C2FF04F114019C20FFF743
:103D4000BDFF04F116019E20FFF7B8FFA120FFF789
:103D5000A8FF207604F11A01E120FFF7AFFFE3206E
:103D6000FFF79FFF2077E420FFF79BFF0501E52089
:103D7000FFF797FF00F00F002843E083E620FFF7EE
:103D800090FF0501E520FFF78CFFC0F307102843E3
:103D90002084E720FFF785FF84F8220038BD00BFAC
:103DA0000C02002010B50446F520FFF77AFF00F062
:103DB0001F0024F01F0149B20143C9B2F520FFF7EB
:103DC00069FF10BD10B50446F520FFF76AFF00F04B
:103DD000E30104F01C042143F520FFF75BFF10BD55
:103DE00010B50446F420FFF75CFF00F01F0024F03C
:103DF0001F0149B20143C9B2F420FFF74BFF10BDC8
:103E000010B50446F420FFF74CFF00F0E30104F086
:103E10001C042143F420FFF73DFF10BD10B50446FC
:103E2000F220FFF73EFF00F0F80104F00704214301
:103E3000F220FFF72FFFF420FFF733FF0146F420B5
:103E4000FFF728FF10BD10B50446F420FFF729FF47
:103E500000F0FC0104F003042143F420FFF71AFFF3
:103E600010BD08B5D020FFF71CFF582802D0FFF77F
:103E7000B7FE08BDB621E020FFF70CFFFFF725FFD6
:103E800010F0010FFAD1FFF727FFA020FFF78AFFFC
:103E90000820FFF797FF6020FFF7A2FF0820FFF739
:103EA000AFFF0120FFF7BAFFF420FFF7FAFEF22080
:103EB000FFF7F7FE0320FFF7C6FFDAE710B5044669
:103EC0000246F421034B187800F03AF9024B1C70BB
:103ED00010BD00BFD00100204302002010B582B009
:103EE000094C4FF47A73009323460322F6210748C6
:103EF000007800F0E5F8207863781B0203EB0043BC
:103F0000A078184402B010BD40020020D00100206B
:103F10000B4B1B782E2B09D0342B09D0742B09D0D6
:103F2000B42B09D0F42B09D000207047052070472E
:103F300005207047082070470E2070471A207047F0
:103F40004302002008B5084B1B7813F0340F01D151
:103F5000002008BDFFF7C2FF034B1B789B09C3F18C
:103F60000803D840F5E700BF4302002008B5FFF77B
:103F7000E9FF2E4B93F800C04FEA9C1C2C4B1B68AA
:103F8000A3F57A6E2B4BB3F900100EFB0EF31B1347
:103F900003FB01F22849B1F900100EFB01F1C9122F
:103FA00001EBE221254AB2F9002001EB820101FA7E
:103FB0000CF18A1C2249B1F900100EFB01FE2149C7
:103FC000B1F9001001FB03F31B1403EB6E33023352
:103FD0009B101D49098803F5004301FB03F3DB0B2C
:103FE000A0EBA2024CF2503020FA0CFC0CFB02F2C7
:103FF000002A16DB5200B2FBF3F3181200FB00F0AC
:1040000040F6DE3200FB02F2104803FB00F0001421
:1040100000EB224000F6CF6003EB2010FCF7EEFD32
:1040200008BDB2FBF3F35B00E7E700BF43020020EB
:104030003C0200203A020020320200203002002020
:1040400034020020380200203602002043E3FFFF44
:1040500008B5174900230B604B600B817E230B7062
:10406000FF234B7006238B700323CB70114B93F807
:1040700000C081F804C0FE23CB71EF234B7248715E
:104080000D4A1388FF3B9BB2063B9BB2033B9BB29E
:10409000A3EB0C039BB2181A00B210800312CB7171
:1040A00008724FF4FA730A22044803F0E6FA08BDD6
:1040B0004802002052020020440200200C0300208D
:1040C0002DE9F04184B015461F46BDF828608DF8F3
:1040D0000F100EB94FF47A764400DFF83480009662
:1040E00001230DF10F022146D8F8000001F05CFB1E
:1040F00000962B463A462146D8F8000001F010FC05
:1041000018B1FF2004B0BDE8F0812846FAE700BFEF
:104110005402002010B584B04FF47A7402940192D6
:10412000009301230A4600FA03F10448006801F0F5
:1041300099FDB0FA80F0400904B010BD540200208F
:1041400000B583B08DF807200DF107030122FFF7BA
:10415000E1FF03B05DF804FB82B00A4B9A6942F0BC
:1041600004029A619A6902F004020092009A9A6924
:1041700042F008029A619B6903F008030193019BD6
:1041800002B070470010024008B50948094B0360AF
:10419000094B436000238360C3604FF48042026197
:1041A00043618361C361036201F020FA08BD00BF6F
:1041B0006002002000540040801A060008B50C4838
:1041C0000C4B03604FF48273436000238360C36031
:1041D000036143614FF4007282611022C261036285
:1041E000436283620A23C36203F0F4F808BD00BF90
:1041F000B40200200030014008B50848084B0360B5
:104200004FF41653436000238360C36003610C22A4
:1042100042618361C36103F001FA08BD0C03002011
:104220000038014010B582B00446802200211448B5
:10423000FCF748FF134B01221A7003E0114A137870
:10424000013313700F4B197893F90030002B14DBF6
:1042500002231A4649000C4801F05AFF0B4B187014
:104260000028EBD1074B1A78094901A803F014FC88
:1042700001A9204603F030FCE0E702B010BD00BF0A
:10428000540300205003002060020020F9030020A6
:10429000EC81000838B5194B00221A600023184A37
:1042A0001360184A136016E0F420FFF707FEF420AD
:1042B000FFF72EFE00F092FAFFF758FE114D2C6822
:1042C000FCF7B6FE104B43F824000D4B1A6810445F
:1042D000186001342C600B4B1C68042CE4DD084B87
:1042E0001868FCF78BFC05462046FCF787FC014666
:1042F0002846FCF78BFD014B186038BD58020020A2
:104300001C040020E8030020D403002070B590B006
:104310002822002106A8FCF7D5FE0024019402946F
:104320000394049405940225069501260A96102309
:104330000B930D954FF420130F9306A802F02EFD5A
:104340000F230193029503944FF480630493059423
:10435000314601A802F062FF10B070BD00B583B015
:10436000354B1B68354AA2FB03239B0D013BB3F180
:10437000807F0AD24FF0E0225361314BF02183F865
:104380002310002393610723136100F003FAFFF762
:10439000BDFFFFF7E1FEFFF7F7FEFFF70FFFFFF7A7
:1043A0002BFF2848FFF73EFFFFF75BFDFFF772FF8B
:1043B0000120FFF74DFE244B1868FCF735F8044642
:1043C0000D46224B1868FCF72FF8CDE90001224674
:1043D0002B461F4803F048FB1E4B19681E4B1868FC
:1043E000FCF756FB1D49FCF70FFE60B91C4B1B7810
:1043F000042BE0D9FFF74EFF194B00221A70C8209A
:1044000000F0ECF9D7E7174C2078FFF721FE23786E
:1044100001332370144A13780133DBB21370022B7B
:1044200007D8104B1B780E2BE0D90E4B01221A70C7
:10443000DCE7FFF72FFFF4E7D4010020819F5E1631
:1044400000ED00E054030020F403002020040020CD
:10445000F481000858020020F003002000001643F9
:10446000EC030020D1010020F803002082B00E4BA5
:104470009A6942F001029A619A6902F0010200927F
:10448000009ADA6942F08052DA61DB6903F0805306
:104490000193019B054A536823F0E06343F00073E6
:1044A000536002B0704700BF00100240000001409E
:1044B00010B586B00023029303930493059302681A
:1044C000154B9A4201D006B010BD144CA36943F0BD
:1044D0000803A361A36903F008030093009BC023B2
:1044E0000293122303930323059302A90C4800F0BF
:1044F00067FAE36943F40013E361E36903F400132B
:104500000193019B002211461F2000F08DF91F200E
:1045100000F0C2F9D7E700BF00540040001002408D
:10452000000C014010B586B000230293039304935E
:1045300005930268164B9A4201D006B010BD03F5F0
:1045400060439A6942F480529A619A6902F48052F7
:104550000092009A9A6942F004029A619B6903F002
:1045600004030193019BA0230293022303930323DB
:104570000593084C02A9204600F022FA402302933A
:1045800000230393049302A9204600F019FAD4E70C
:10459000003001400008014030B587B0002302938D
:1045A00003930493059302681B4B9A4201D007B012
:1045B00030BD03F558439A6942F480429A619A6982
:1045C00002F480420092009A9A6942F004029A61D1
:1045D0009B6903F004030193019B4FF40073029362
:1045E00002230393032305930C4D02A9284600F0F0
:1045F000E7F94FF48063029300240394049402A922
:10460000284600F0DDF922462146252000F00CF96D
:10461000252000F041F9CAE70038014000080140B8
:10462000FEE7FEE7FEE7FEE7FEE7704770477047EC
:1046300008B500F0C1F808BD08B5024802F0C8FA94
:1046400008BD00BF6002002008B50A4803F004F965
:10465000094B1B6813F0200F0AD1074B5A68D2B2DE
:10466000064B1A7006490B780648C25401330B708A
:1046700008BD00BF0C030020003801405C02002090
:1046800024040020FC0300200120704708B503F03B
:10469000E5F9162303604FF0FF3008BD08B54FF071
:1046A000FF31FFF7F3FFFEE770B50C461646002515
:1046B00006E0AFF30080214601F8010B01350C46FE
:1046C000B542F6DB304670BD70B50C461646002587
:1046D00004E014F8010BAFF300800135B542F8DBBC
:1046E000304670BD4FF0FF3070474FF400534B60C1
:1046F00000207047012070470020704710B5034626
:104700000C4A0D490D48006840B10C48006803444C
:10471000521A934206D8094A136010BD0748084C44
:104720000460F2E703F09AF90C2303604FF0FF30C6
:10473000F3E700BF00500020000400002804002020
:10474000300400207047000010B504460E4B187866
:104750004FF47A73B3FBF0F30C4A1068B0FBF3F03C
:1047600000F0A8F868B90F2C01D901200AE0002256
:1047700021464FF0FF3000F057F8054B1C60002039
:1047800000E0012010BD00BFD8010020D4010020AE
:10479000DC01002008B5074A136843F010031360DA
:1047A000032000F02FF80020FFF7CEFFFFF75EFE9A
:1047B000002008BD00200240034A1168034B1B780B
:1047C0000B441360704700BF2C040020D801002068
:1047D000014B1868704700BF2C04002038B5044610
:1047E000FFF7F6FF0546B4F1FF3F02D0044B1B78FC
:1047F0001C44FFF7EDFF401BA042FAD338BD00BFB9
:10480000D8010020074AD36823F4E0631B041B0C83
:10481000000200F4E060034343F0BF6343F400335D
:10482000D360704700ED00E000B5194BDB68C3F3BF
:104830000223C3F1070CBCF1040F28BF4FF0040C96
:1048400003F1040EBEF1060F18D9033B4FF0FF3EF3
:104850000EFA0CFC21EA0C0199400EFA03F322EA4D
:104860000303194300280BDB0901C9B200F16040C2
:1048700000F5614080F800135DF804FB0023E5E7D4
:1048800000F00F000901C9B2024B1954F4E700BF50
:1048900000ED00E014ED00E0002807DB00F01F024F
:1048A000400901239340024A42F82030704700BF7C
:1048B00000E100E00138B0F1807F0BD24FF0E0233F
:1048C0005861054AF02182F82310002098610722E0
:1048D0001A6170470120704700ED00E090F8213028
:1048E000022B06D004238363002380F820300120AC
:1048F00070470268136823F00E03136002681368A0
:1049000023F001031360036CC16B012202FA03F36D
:104910004B6080F82120002380F820301846704733
:1049200008B590F82130022B03D0042383630120C3
:1049300008BD0268136823F00E0313600268136851
:1049400023F0010313600368194A934214D0143210
:1049500093421FD0143293421ED0143293421ED081
:10496000143293421ED01432934202D04FF0807220
:1049700003E04FF4801200E001220E4B5A60012345
:1049800080F82130002380F82030436B6BB19847CA
:104990000020CDE71022F0E74FF48072EDE74FF4EE
:1049A0008052EAE74FF48032E7E70020C0E700BF1B
:1049B000080002400000024090F82100704700000B
:1049C00070B582B00024A446A6E0804DAA4210D063
:1049D00007D97F4DAA420CD005F58035AA4208D0F0
:1049E00013E0A5F58015AA4203D005F57025AA426B
:1049F00007D18A68002A58D0012A51D0436108247F
:104A000003E0A5F58015AA42F3D0BEF1FF0F4ED802
:104A10000646BEF1FF0F4CD84FEA8C0233680F25D3
:104A2000954023EA050304FA02F2134333604B680E
:104A300013F0805F6ED0674B9A6942F001029A6171
:104A40009B6903F001030193019B4FEA9C02951CB3
:104A5000614B53F825600CF003039D000F23AB401E
:104A600026EA03065D4B984229D003F580639842FD
:104A700000F08E8003F58063984200F08B8003F590
:104A80008063984219D004231AE0CC68BDE7CC6853
:104A90000434BAE7CC680834B7E7CC680C34B4E720
:104AA00003610824B1E70024AFE70424ADE7061D45
:104AB000AFE7ACF108029200B0E7032300E0002367
:104AC000AB4033430232444D45F822304B6813F477
:104AD000803F61D0424A136843EA0E0313604B687B
:104AE00013F4003F5ED03E4A536843EA0E0353601E
:104AF0004B6813F4801F5BD0394A936843EA0E0376
:104B000093604B6813F4001F58D0354AD36843EACA
:104B10000E03D3600CF1010C0A6832FA0CF353D087
:104B2000012303FA0CF302EA030E33EA0202F1D185
:104B30004A68122A3FF649AF122A3FF666AF01A52E
:104B400055F822F0F34900088B4A0008954A0008FE
:104B5000A74A00080B4A00080B4A00080B4A000845
:104B60000B4A00080B4A00080B4A00080B4A0008D1
:104B70000B4A00080B4A00080B4A00080B4A0008C1
:104B80000B4A00080B4A00088F4A00089B4A00089D
:104B9000012395E7022393E7114A136823EA0E03E2
:104BA00013609CE70E4A536823EA0E0353609FE7A5
:104BB0000B4A936823EA0E039360A2E7084AD3687E
:104BC00023EA0E03D360A5E702B070BD00002210F7
:104BD00000003110001002400000014000080140B8
:104BE000000401400AB10161704709040161704786
:104BF00090F83E30DBB2402B10D00369B3F5804F04
:104C00001BD0036D002B39D1436CC3F3C81302686A
:104C100003F0060343F0F00313617047036D2BB9F3
:104C2000436C026803F0FE0313617047436C026833
:104C300043F00103DBB21361704790F83D30DBB203
:104C4000212B0FD0436C026843F00103DBB21361E8
:104C5000436B6BB19B6A5BB10268536843F40063BA
:104C600053607047436C026803F0FE031361EFE783
:104C7000836B33B19B6A002BEED102E0036D012BF5
:104C800000D07047436CC3F3C813026803F00603F7
:104C900043F0F1031361F4E7436C0268DBB2136184
:104CA000436B3BB19B6A2BB10268536843F40063CA
:104CB00053607047836B002BFBD09B6A002BF3D1B2
:104CC000F7E710B48DB090F83E30DAB2C16A046BE9
:104CD00090F83D30DBB2222B0AD000230B930368FF
:104CE0005A690B929B690B930B9B0DB010BC7047DC
:104CF000036D0BB9402A17D0036D1BB90369B3F5D7
:104D0000404F19D0438D9BB2002B25D103930368EC
:104D10005A6903929A690392039A1A6842F40072DC
:104D20001A6000230365E0E7019303685A69019262
:104D30009B690193019BD8E70023029303685A699A
:104D400002929A690292029A1A6842F480721A6078
:104D5000036D01330365C8E7438D9BB2012B25D05A
:104D6000438D9BB2022B7BD00268136843F48063AF
:104D7000136003685A6812F4006F0ED011F5803F7B
:104D800007D0012905D0082903D0102901D02029F6
:104D900003D15A6842F480525A6000230A93036890
:104DA0005A690A929B690A930A9BBAE711F5803FF8
:104DB00011D0082934D0202932D0122C2ED0042929
:104DC00040D002293ED010293CD00268136823F459
:104DD000806313603BE00268136823F48063136010
:104DE00003685A6812F4006F0CD01A6822F48062CB
:104DF0001A600023049303685A6904929B69049320
:104E0000049B8EE7002205925A6905929A690592E1
:104E1000059A1A6842F400721A6082E70129CED01E
:104E20000268136823F48063136000230793036808
:104E30005A6907929A690792079A1A6842F40072AF
:104E40001A606EE70268136843F4806313600023FE
:104E5000069303685A6906929B690693069B60E76E
:104E6000042915D0022913D0102911D00268136823
:104E700043F4006313600023089303685A6908929F
:104E80009A690892089A1A6822F480621A600CE003
:104E90000268136843F48063136000230993036876
:104EA0005A6909929B690993099B03685A6812F42D
:104EB000006F3FF436AF11F5803F08D0012906D0CE
:104EC000082904D0102902D020297FF42AAF5A687B
:104ED00042F480525A6024E7438D9BB25BB1426A30
:104EE000036812781A61436A01334362438D9BB2AF
:104EF000013B9BB243857047438D9BB25BB1036816
:104F00001A69436A1A70436A01334362438D9BB244
:104F1000013B9BB24385704782B0002301930E4B47
:104F20001B68DB080D4AA2FB03231B0A03EB830368
:104F30000193019B013B0193019B33B103681B6803
:104F400013F4007FF5D1002004E0036C43F020034C
:104F50000364012002B07047D401002089B5F81421
:104F600003685A6912F4806F01D1002070476FF412
:104F700080625A6100230363202280F83D2080F87C
:104F80003E30026C42F00402026480F83C300120A2
:104F90007047C36AB3F52A0F04D0C36AB3F12A4F2E
:104FA00003D070470123C36270470823C362F8E748
:104FB0002DE9F04107460D4690461E4624E0FFF7D6
:104FC00007FC069BC01AB04200D8EEB900233B6331
:104FD000202287F83D2087F83E303A6C42F02002CC
:104FE0003A6487F83C3001201EE03B689C6925EA62
:104FF000040C1FFA8CFCBCFA8CFC4FEA5C1CE045EC
:1050000011D1B6F1FF3FDAD1C5F30743012BECD143
:105010003B685B6925EA030C1FFA8CFCBCFA8CFC2C
:105020004FEA5C1CEBE70020BDE8F0812DE9F04180
:1050300005460E46174698463DE01A6842F400724F
:105040001A602B686FF480625A6100232B63202260
:1050500085F83D2085F83E302A6C42F004022A642F
:1050600085F83C30012034E0FFF7B2FBA0EB0800EC
:10507000B84200D8FFB900232B63202285F83D20D9
:1050800085F83E302A6C42F020022A6485F83C30D4
:1050900001201EE02B689C6926EA0404A4B2003CAF
:1050A00018BF0124A4B12B685A6912F4806FC4D1CF
:1050B000B7F1FF3FD8D1C6F30743012BEAD12B68E4
:1050C0005C6926EA0404A4B2003C18BF0124E9E7A5
:1050D0000020BDE8F0810000F0B583B004460D4625
:1050E00016461F46C36A082B0DD0012B0BD013F5B3
:1050F000803F08D0036B122B0AD10268136843F477
:105100008073136004E02268136843F480731360B3
:105110000097334600224FF001112046FFF748FF69
:1051200080B92369B3F5804F16D1236805F0FE05D9
:105130001D613B46324613492046FFF777FFF8B919
:1051400003B0F0BD23681B6813F4807F02D04FF4D6
:10515000007323640320F3E7EB11226803F00603D6
:1051600043F0F00313613B46324607492046FFF700
:105170005DFF18B92368EDB21D61DAE70120DFE7B2
:105180000120DDE702000100080001002DE9F041E7
:1051900084B004460D4616461F46C26A01680B6875
:1051A00043F480630B60082A0DD0012A0BD012F55E
:1051B000803F08D0036B112B0AD10268136843F4B7
:1051C0008073136004E02268136843F480731360F3
:1051D0000097334600224FF001112046FFF7E8FE0A
:1051E00098B92369B3F5804F19D1236845F00105BB
:1051F000EDB21D613B4632462A492046FFF716FFB5
:1052000000284CD104B0BDE8F08123681B6813F47A
:10521000807F02D04FF4007323640320F2E74FEA4B
:10522000E51808F00608236848F0F0021A613B46CA
:1052300032461D492046FFF7F9FE08B10120E1E79B
:105240002368EDB21D613B46324616492046FFF702
:10525000EDFE08B10120D5E70022039223685969C9
:105260000391996903910399196841F48071196058
:10527000009733464FF001112046FFF799FE20B901
:10528000226848F0F1031361B4E723681B6813F444
:10529000807F02D04FF4007323640320B2E7012023
:1052A000B0E700BF020001000800010070B504462D
:1052B0000D46164623685B6913F0800F1CD120460B
:1052C000FFF74EFED0B9B5F1FF3FF3D0FFF780FAFC
:1052D000801BA84201D8002DECD10023236320229B
:1052E00084F83D2084F83E30226C42F02002226493
:1052F00084F83C30012000E0002070BD0120FCE774
:105300002DE9F04385B004460D4691461F46DDF871
:1053100030800D9E0368196841F480711960009611
:10532000434600224FF00111FFF742FE60B92368A7
:1053300005F0FE051D613346424626492046FFF72B
:1053400075FE68B1012008E023681B6813F4807FB4
:1053500002D04FF400732364032005B0BDE8F0834E
:105360000023039323685A6903929B690393039B69
:10537000324641462046FFF799FF30B9012F0FD141
:1053800023685FFA89F61E61E7E7236C042B01D0DE
:105390000120E2E72268136843F400731360F7E723
:1053A00023684FEA19221A61324641462046FFF728
:1053B0007DFF20B923685FFA89F61E61CDE7236C73
:1053C000042B01D00120C8E72268136843F400735E
:1053D0001360F7E7020001002DE9F04784B00446AE
:1053E0000D46164699460C9FDDF834800268136816
:1053F00043F4806313600368196841F48071196095
:10540000CDF800803B4600224FF00111FFF7D0FDA0
:1054100070B95FFA85FA236805F0FE051D61434601
:105420003A4641492046FFF701FE68B1012008E0F5
:1054300023681B6813F4807F02D04FF40073236449
:10544000032004B0BDE8F0870023039323685A6962
:1054500003929B690393039B424639462046FFF71C
:1054600025FF80B9B9F1010F18D12368F6B21E618A
:10547000424639462046FFF719FF68B3236C042BD8
:1054800024D00120DDE7236C042B01D00120D8E7D4
:105490002268136843F400731360F7E72368320A45
:1054A0001A61424639462046FFF700FF18B92368C3
:1054B000F6B21E61DCE7236C042B01D00120C0E7AB
:1054C0002268136843F400731360F7E722681368D7
:1054D00043F400731360D4E72268136843F48073C5
:1054E0001360CDF800803B4600224FF001112046AA
:1054F000FFF75EFD68B922684AF001031361434675
:105500003A4609492046FFF791FD002899D001202D
:1055100097E723681B6813F4807F02D04FF4007371
:10552000236403208DE700BF0200010070B504462C
:105530000D46164623685B6913F0040F1CD1204604
:10554000FFF70EFDD0B9B5F1FF3FF3D0FFF740F9FB
:10555000801BA84201D8002DECD100232363202218
:1055600084F83D2084F83E30226C42F02002226410
:1055700084F83C30012000E0002070BD0120FCE7F1
:1055800070B505460C4616462B68596911F0400F58
:1055900029D1596911F0100F15D1FFF719F9801BA6
:1055A000A04201D8002CEFD100232B63202285F8E4
:1055B0003D2085F83E302A6C42F020022A6485F8AE
:1055C0003C30012070BD6FF010025A6100232B6344
:1055D000202285F83D2085F83E302A6C2A6485F823
:1055E0003C300120EEE70020ECE70000002800F04E
:1055F000CC8070B5044690F83D30002B77D0242342
:1056000084F83D302268136823F001031360226898
:10561000136843F4004313602268136823F40043C3
:10562000136001F0B7FE62685A4B9A4264D85A4B35
:1056300098428CBF00230123002B40F0A8805749DB
:10564000A1FB00318B0C25686A6822F03F0242EA18
:1056500091426A6021680A6A22F03F0266684D4DF5
:10566000AE424FD8013313430B622168CA6922F45A
:105670004F4222F0FF026668464B9E424CD8431EC2
:105680007600B3FBF6F3013340F6FC70034278D0AA
:10569000C3F30B031343CB6121680B6823F0C003F2
:1056A000E269206A024313430B6021688B6823F48C
:1056B000034323F0FF032269E068024313438B6036
:1056C0002168CB6823F0FF036269A069024313439A
:1056D000CB602268136843F001031360002020644C
:1056E000202384F83D30206384F83E0070BD80F8AC
:1056F0003C30FEF7DDFE82E7294B98428CBF002349
:10570000012399E74FF4967505FB03F3254DA5FB9F
:1057100003539B090133A6E7A368BBB9451E06EBFB
:10572000460CB5FBFCF50135C5F30B05B5FA85F55F
:105730006D0945BBC3B9013806EB4603B0FBF3F373
:105740000133C3F30B0343F40043A3E7451E06EB09
:10575000860C0CEB8C0CB5FBFCF50135C5F30B0589
:10576000B5FA85F56D09E4E7013806EB860303EB2E
:105770008303B0FBF3F30133C3F30B0343F4404360
:1057800088E7042386E7012384E70120704701208E
:10579000ACE700BFA08601007F841E0083DE1B43B0
:1057A000FF083D00D34D62102DE9F04385B004465B
:1057B0000F46914698460C9EFFF70AF8054694F866
:1057C0003D00C0B2202804D00227384605B0BDE80D
:1057D000F0830095192301224F492046FFF7E8FB8B
:1057E000002840F0928094F83C30012B00F08F802C
:1057F000012384F83C3023681A6812F0010F03D1AA
:105800001A6842F001021A602268136823F40063E8
:105810001360212384F83D30102384F83E300023A8
:105820002364C4F82490A4F82A80638D23853B4B1D
:10583000E3622B46324639462046FFF74DFC0746C9
:10584000002866D10023039323685A6903929B6959
:105850000393039B11E0236C042B01D00127B4E7D1
:105860002268136843F400731360F7E72A46314651
:105870002046FFF75BFE00282ED1238D002B36D06B
:105880002A4631462046FFF711FD0028E3D1626A1F
:10589000236812781A61606A431C6362618D89B261
:1058A000013989B26185238D013B9BB22385226832
:1058B000516911F0040FD9D0002BD7D04378136170
:1058C000636A01336362638D9BB2013B9BB2638564
:1058D000238D013B2385C9E7236C042B01D00127CD
:1058E00073E72268136843F400731360F7E72268D4
:1058F000136843F400731360202384F83D300023C1
:1059000084F83E3084F83C305FE702275DE70227E9
:105910005BE7012759E700BF020010000000FFFF0E
:105920002DE9F04389B004460F4691469846109EF3
:1059300000230793FEF74CFF054694F83D00C0B2E4
:10594000202804D00227384609B0BDE8F08300952E
:105950001923012280492046FFF72AFB002840F046
:10596000708194F83C30012B00F06D81012384F8A4
:105970003C3023681A6812F0010F03D11A6842F014
:1059800001021A602268136823F400631360222363
:1059900084F83D30102384F83E3000232364C4F89B
:1059A0002490A4F82A80638D23856C4BE3622B46F8
:1059B000324639462046FFF7E9FB0746002840F00B
:1059C0004481238D5BB9039323685A6903929A69D2
:1059D0000392039A1A6842F400721A60EEE0012BF7
:1059E0000FD0022B21D02268136843F48063136028
:1059F0000023069323685A6906929B690693069BC7
:105A0000DCE02268136823F48063136072B600231D
:105A1000049323685A6904929A690492049A1A6852
:105A200042F400721A6062B6C8E02268136843F458
:105A30000063136072B60023059323685A690592C8
:105A40009A690592059A1A6822F480621A6062B611
:105A5000B4E02A4631462046FFF792FD002840F088
:105A6000F68023681A69636A1A70636A0133636295
:105A7000238D013B2385638D9BB2013B9BB26385E4
:105A80009CE000953346002235492046FFF790FA06
:105A9000002840F0E0802268136823F480631360DC
:105AA00072B623681A69636A1A70636A01336362A3
:105AB000238D013B2385638D9BB2013B9BB26385A4
:105AC000284B1B68DB08284AA2FB03231B0A03EBB5
:105AD0008303C3EBC3030793079901390791079920
