:020000040800F2
:10000000F0050020010100082B2A00083D1D000812
:10001000292A0008350600086D2D000800000000A0
:100020000000000000000000000000002F2A00086F
:1000300037060008000000002D2A0008312A0008B9
:100040001B0100081B0100081B0100081B01000820
:100050001B0100081B0100081B0100081B01000810
:100060001B0100081B0100081B0100081B01000800
:100070001B0100081B0100081B0100081B010008F0
:100080001B0100081B0100081B0100081B010008E0
:100090001B0100081B0100081B0100081B010008D0
:1000A0001B0100081B0100081B0100081B010008C0
:1000B0001B0100081B0100081B010008411D00086E
:1000C0001B0100081B0100081B0100081B010008A0
:1000D0001B010008612D00081B0100081B0100081E
:1000E0001B0100081B0100081B010008DFF80CD0F1
:1000F00000F076F90048004759310008F00500206B
:100100000648804706480047FEE7FEE7FEE7FEE7B1
:10011000FEE7FEE7FEE7FEE7FEE7FEE7D52A00087A
:10012000ED000008202A04DB203A21FA02F0002129
:10013000704721FA02F3D040C2F1200291400843F7
:1001400019467047D2B201E000F8012B491EFBD2DC
:1001500070470022F6E710B513460A4604461946D2
:10016000FFF7F0FF204610BD421E12F8013F002BA2
:10017000FBD111F8013B02F8013B002BF9D170478C
:10018000F0B480EA0102D40F4200B2EB410F02D278
:100190000246084611464A0042D0C30DDDB2C1F303
:1001A000C752AD1A202D35DAC1F3160141F4000211
:1001B00004B15242C5F1200602FA06F12A41104468
:1001C000B3EBD05F23D0C4B1012DA0EBC35009DC49
:1001D000F0BC4FF0004202EAC352DBB200F500006F
:1001E00000F0CFB8400000F1807000EBC350A0F1E8
:1001F000807040EAD170490009E0490841EAC071C5
:10020000A0EBC35000F50000400800EBC350F0BC69
:1002100000F0AEB86142012202EB4101001BF6E79B
:10022000F0BC704781F00041AAE780F00040A7E7EA
:1002300030B480EA010202F0004530F0004221F0C3
:10024000004013D090B1C30DD40DC2F31601C0F31A
:100250001600E41A41F4000140F400027D3491429A
:1002600001D3641C00E04900002C02DA30BC0020FD
:1002700070474FF400000023914201D3891A0343D1
:1002800040084FEA4101F7D151B1914202D14FF0FC
:10029000004105E002D24FF0010101E06FF00101E1
:1002A00003EBC450284430BC00F062B8C10F80EAB0
:1002B000E0700844CA079623002100F062B800F0FD
:1002C000004220F00040C10DC0F3160040F40000D1
:1002D0007F2901DA00207047962903DCC1F19601DD
:1002E000C84001E096398840002AF4D04042704767
:1002F0002DE9F05F0546002092469B46884606465B
:10030000814640241BE02846414647462246FFF7E7
:1003100009FF53465A46C01A914110D31146184658
:10032000224600F016F82D1A67EB01084F462246C8
:100330000120002100F00DF817EB00094E41201EAE
:10034000A4F10104DFDC484631462A464346BDE8B5
:10035000F09F202A04DB203A00FA02F100207047C7
:100360009140C2F1200320FA03F3194390407047F3
:100370000029A8BF7047401C490008BF20F00100B9
:10038000704710B4B0FA80FC00FA0CF050EA010497
:1003900004BF10BC704749B1CCF1200421FA04F429
:1003A00011FA0CF118BF012121430843A3EB0C0102
:1003B000CB1D4FEA00614FEA102042BF002010BC65
:1003C000704700EBC35010440029A4BF10BC704715
:1003D000401C490008BF20F0010010BC704700001D
:1003E000064C074D06E0E06840F0010394E8070082
:1003F00098471034AC42F6D3FFF77CFE1433000864
:10040000343300080A4840782E2809D0342807D011
:10041000742807D0B42807D0F42807D000207047EC
:1004200005207047082070470E2070471A2070473B
:100430000000002008B54FF47A70094B0090A3F13A
:1004400018000322F621007802F094FA044801789B
:1004500042780904807801EB0221084408BD0000BD
:100460001800002070B500F04FF825494A78B1F91E
:100470000A5093090A6AB1F90460A2F57A6202FB94
:1004800002F424136543ED12564305EBE625B1F95A
:10049000026005EB86059D40B1F90660AD1C564330
:1004A0007213B1F90860498A744302EB2442921C2A
:1004B000921002F500425143C90B4CF25032A0EBAE
:1004C000A500DA405043B0F1004F03D24000B0FB2A
:1004D000F1F002E0B0FBF1F040000112494340F6B8
:1004E000DE325143074A09144243BDE8704001EB34
:1004F000224101F6CF6100EB2110FFF7D7BE0000CB
:100500000000002043E3FFFF10B5064C607810F0B8
:10051000340006D0FFF78EFF61780822A2EB91111C
:10052000C84010BD000000200348017809B97721B8
:10053000017000F003B800000000002010B588B082
:100540002D4C4FF47A70009001AB1622AA2120782E
:1005500002F010FA9DF805009DF8041000EB012050
:1005600060809DF807009DF8061000EB0120A08038
:100570009DF809009DF8081000EB0120E0809DF82F
:100580000B009DF80A1000EB012060829DF80D0021
:100590009DF80C1000EB0120A0829DF80F009DF843
:1005A0000E1000EB0120E0829DF811009DF8101064
:1005B00000EB012020819DF813009DF8121000EB44
:1005C000012060819DF815009DF8141000EB0120BA
:1005D000A0819DF817009DF8161000EB0120E08126
:1005E0009DF819009DF8181000EB012020820120D1
:1005F000E06108B010BD00000000002070B5044D9F
:1006000004460246F421287802F0D6F96C7070BDD9
:1006100000000020064A10B5A2F118006423AA21A8
:10062000007802F09FF9012800D0002010BD0000E2
:1006300018000020FEE7704710B590F82110002444
:10064000022903D00421816301243DE001680A6886
:1006500022F00E020A6001680A6822F001020A60B4
:100660001A4A0168914201D1012121E0174A14324E
:10067000914201D110211BE0144A2832914201D14C
:10068000891515E0114A3C32914201D189140FE0DD
:100690000E4A5032914202D14FF4803108E00B4AA9
:1006A0006432914202D14FF4801101E04FF0807129
:1006B000064A083A5160012180F82110002180F893
:1006C0002010416B01B18847204610BD0800024050
:1006D00090F821007047000070B5044600F0FEF865
:1006E0000546601C02D004480078044400F0F6F887
:1006F000401BA042FAD370BD540000202DE9F84FF2
:10070000DFF8B891002409F1040A0AF1040B23462A
:100710000F270BF1040EC9E00125A5402A40AA428B
:100720007DD1674ED1F804C0ACEB0608B44532D099
:1007300014DCBCF1030F3AD009DCBCF1000F2AD065
:10074000BCF1010F1CD0BCF1020F31D11DE0BCF196
:10075000110F17D0BCF1120F2AD119E0B8F5881F7C
:1007600019D006DCB8F5803F15D0B8F5801F1FD131
:1007700011E0B8F5001F0ED0B8F5041F18D10AE03B
:10078000CB6815E0CB681B1D12E0CB6808330FE087
:10079000CB680C330CE08B682BB1012B4FF00803B6
:1007A00003D0456104E0042302E0056100E000237A
:1007B000FF2A01D8064601E000F104064FEA84054D
:1007C00001D9A5F12005D6F8008007FA05FC28EA32
:1007D0000C0803FA05F548EA0508C6F800804D68DC
:1007E000ED0062D5374DAE6946F00106AE61AD69E8
:1007F00024F0030605F001050095334D06EB050CCA
:10080000DCF80850A607360F07FA06F825EA0805AF
:10081000DFF8B880404503D14FF0000817E044E00E
:10082000DFF8AC80404502D14FF001080FE0DFF85F
:10083000A480404502D14FF0020808E0DFF898801C
:10084000404502D14FF0030801E04FF0040808FAD8
:1008500006F848EA0508CCF808804D68D9F8006029
:10086000ED034D4601D5164300E096432E604D68DA
:10087000DAF80060AD03554601D5164300E0964313
:100880002E604D68DBF80060ED025D4601D5164331
:1008900000E096432E604D68DEF80060AD027546BC
:1008A00001D5164300E096432E60641C0D682A466D
:1008B000E5407FF431AFBDE8F88F0000000401404F
:1008C000000011100010024000000140000801402B
:1008D000000C0140001001400014014001488068F4
:1008E0007047000054000020704770472DE9F04128
:1008F000026800245168C56A90F83E3090F83D6067
:10090000102B1CD0402B1AD0036C002B7ED05369C7
:100910004FF02805DB439F0779D4CF43BF0576D43A
:10092000016C01B1946990F83D3000219D430B4664
:100930007FD0C91E516180F83C30BDE8F0819469D8
:1009400053694FF42A07DB435FEAC37C4FF02A4622
:1009500004D0BD42F1D0B542EFD010E0CD43AD059B
:100960000DD4C16AB94201D1012103E0C16AB1428B
:1009700001D10821C162BDE8F04101F0AFBD1D0702
:1009800016D4CD43AD0513D4416CC9B21161416B8E
:1009900011B9826B002AD0D0896A19B9816B896A32
:1009A0000029CAD00068416841F400614160C4E791
:1009B0009D0706D4CD43AD0503D4BDE8F04101F059
:1009C000E1BCE443526864074FEA025215D4002A9E
:1009D000B3DB1A0608D4CA43520505D45A0705D515
:1009E000BDE8F04101F04CBC5A07A6D4C9438905C3
:1009F000A3D4BDE8F04101F001BC002A9DDB5A06FA
:100A00000CD4CA43520509D45A0702E00FE023E090
:100A10000FE005D5BDE8F04101F0F8BA5A078CD4D3
:100A2000C943890589D4BDE8F04101F086BA9469CB
:100A30006DE7556825F480655560E243540700D59D
:100A40000121120601D5828900E0028B80F83C303A
:100A500092B2FFF74AFF70E7DC0606D4CC43A40548
:100A600003D4BDE8F04101F0CBBD212E27D0292EC3
:100A700025D05C0655D4CC43640552D45B0752D5CF
:100A800090F83D10438D002B91D01269436A1A7083
:100A9000426A521C4262428D521E4285428D002A99
:100AA00085D12A29D7D101684A6822F480624A6038
:100AB0002221016380F83D5000F01CFC3DE71C063C
:100AC00023D4CC43640520D45B0720D590F83D1097
:100AD000438D002BBFD0436A1B781361426A521CBE
:100AE0004262428D521E4285428D002AB3D129298D
:100AF000B1D101684A6822F480624A602121016311
:100B000080F83D5000F0F7FB17E75B07A3D4C9431B
:100B10008905A0D4418D00299DD0416A09781161D1
:100B20000AE05B0797D4C943890594D4418D002915
:100B300091D01169426A1170416A491C4162418D2C
:100B4000491E4185F9E6704770B504001BD094F842
:100B50003D00002520B984F83C50204600F094FB6D
:100B6000242084F83D002068016821F00101016023
:100B700000F0F0FC4D4A6168914201D84C4900E018
:100B80004C49884201D2012070BD4B492368B0FB1B
:100B9000F1F15E6826F03F060E435E6063689342A3
:100BA00006D94FF4967359434FF47A73B1FBF3F1BE
:100BB0002368491C1E6A26F03F06314319626168AA
:100BC000914210D84900401EB0FBF1F2521CC2F312
:100BD0000B02042A01D2042022E0B0FBF1F0401CF9
:100BE000C0F30B001CE0A368F3B301EBC10202EBFE
:100BF0000116421EB2FBF6F2521C42F4804212056C
:100C000049D093B301EBC10202EB0111401EB0FBCE
:100C1000F1F0401CC0F30B0040F4804040F4004071
:100C20002168CA694CF6FF739A431043C861D4E93E
:100C30000701084321680A6822F0C00210430860D7
:100C4000D4E9030101432068826848F2FF339A43E4
:100C500011438160D4E9050108432168CA6822F084
:100C6000FF021043C86001E00EE016E02068016852
:100C700041F0010101602564202084F83D002563D6
:100C800084F83E50002070BD01EB4106421EB2FBCD
:100C9000F6F2521CB3E70120C2E701EB4101401E0E
:100CA000B0FBF1F0401CC0F30B00B7E7A0860100D9
:100CB00080841E0000093D0040420F002DE9FF4FD7
:100CC00081B089460446FFF709FE054694F83D00C9
:100CD0004FF0010820287AD1192301224B492046E0
:100CE000009501F061FD002871D194F83C000128C5
:100CF0006DD0012084F83C0020680168C90703D149
:100D0000016841F0010101602068016821F400617F
:100D10000160242084F83D00002626643C48E062FF
:100D20004FF0011B20272068016841F480710160A9
:100D30000095002259462046049B01F035FD00280D
:100D400056D1216809F0FE000861FFF7C7FD216850
:100D5000054648694969C0F34000C1F380214FF05E
:100D6000A00A0FE0FFF7BAFD411B0498814200D8AA
:100D700008B984F83DA0216848694969C0F340007A
:100D8000C1F3802194F83D20A02A02D008B900299F
:100D9000E8D084F83D7020684169C943890717D4B9
:100DA000016841F40071016020684169806919237C
:100DB000012216492046009501F0F6FCC0B984F8DE
:100DC0003D7084F83C60002005B0BDE8F08F1BE06A
:100DD000016841F40071016021686FF4806048612E
:100DE0001923012209492046009501F0DDFC08B1D4
:100DF0000120E9E7039808F10108804593D384F8BE
:100E00003D7084F83C60F3E70220DDE7020010004B
:100E10000000FFFF70477047704700002DE9F84F52
:100E20001F4690468A460446DDF82890FFF756FD97
:100E3000054694F83D00202879D1192301227749ED
:100E40002046009501F0B0FC0028F5D194F83C0054
:100E500001286CD0012084F83C0020680168C90793
:100E600003D1016841F0010101602068016821F4AB
:100E700000610160222084F83D00102084F83E00CB
:100E800000262664C4F824806785608D2085644828
:100E9000E0622B464A465146204601F000F9002800
:100EA0007ED1208D5F4F68B1012814D002282068C0
:100EB00001681ED041F48061016020684169806949
:100EC00000909DE02068416981690091016841F4CA
:100ED0000071016094E02068016821F48061016084
:100EE00072B62068416981690091016841F400711E
:100EF0000AE041F40061016072B6206841698169CD
:100F00000091016821F48061016062B678E00328F5
:100F100050D801280CD002284B464FF00002394629
:100F2000204600950FD001F03FFCC8BB10E073E0F5
:100F30002A464946204601F0B6FC88BB2068006975
:100F4000616A087053E001F02FFC48BB72B61AE0EA
:100F50002068016821F48061016072B62068006930
:100F6000616A0870606A401C6062208D401E2085A6
:100F7000608D401E60854B46002239462046009514
:100F800001F012FC60B92068016841F40071016051
:100F900020680069616A0870606A401C606200E055
:100FA0000EE0218D491E2185618D491E618562B645
:100FB00021681AE02A464946204601F074FC10B127
:100FC0000120BDE8F88F20680069616A0870606AD6
:100FD000401C6062218D491E2185618D491E6185FD
:100FE00021684A69D24352070AD409690170606ACC
:100FF000401C6062208D401E2085608D401E6085F3
:10100000208D002883D1202084F83D0084F83E60A4
:1010100084F83C600020D4E70220D2E702001000F0
:101020000000FFFF040001002DE9F84F1F46904625
:101030008A460446DDF82890FFF750FC054694F8F0
:101040003D0020287FD119230122404920460095E8
:1010500001F0AAFB002876D194F83C00012872D058
:10106000012084F83C0020680168C90703D10168A9
:1010700041F0010101602068016821F40061016014
:10108000212084F83D00102084F83E0000262664CC
:10109000C4F824806785608D20852D48E0622B464A
:1010A0004A465146204601F065F890B920684169EA
:1010B0008069009036E02A464946204601F026FC29
:1010C00050B1206C042804D12068016841F40071FB
:1010D00001600120BDE8F88F606A2168007808612E
:1010E000606A401C6062618D491E6185218D491EC8
:1010F00089B2218522685369DB435B070BD451B168
:1011000000781061606A401C6062608D401E6085DE
:10111000208D401E20852A464946204601F01EFBB0
:101120000028CED1208D0028C5D154F83D0B016890
:1011300041F400710160202004F81E09E67766770B
:101140000020C7E7FFE70220C4E70000020010000C
:101150000000FFFF704770472DE9FF4F83B09A46AC
:10116000DDE9119793460446DDF84080FFF7B6FBB2
:10117000054694F83D0020287FD1192301224049DB
:101180002046009501F010FB002876D194F83C0031
:10119000012872D0012084F83C0020680168C9074A
:1011A00003D1016841F0010101602068016821F468
:1011B00000610160212084F83D00402084F83E0059
:1011C00000262664C4F82480A4F82A90608D208527
:1011D0002C48E062CDE9007553465A4620460499F2
:1011E00001F0C4F970B930E02A463946204601F0D2
:1011F0008DFB58B1206C042804D12068016841F4AB
:1012000000710160012007B0BDE8F08F606A2168BD
:1012100000780861606A401C6062218D491E89B2B5
:101220002185628D521E628522685369DB435B070C
:101230000BD469B100781061606A401C6062208D37
:10124000401E2085608D401E6085208D0028CBD1FA
:101250002A463946204601F081FA0028CAD154F8BE
:101260003D0B016841F400710160202004F81E0963
:10127000E67766770020C6E7FFE70220C3E70000B5
:10128000020010000000FFFF10B586B000210091A1
:1012900001910291039100681349884222D1134CB5
:1012A000A06940F00800A061A069694600F008004C
:1012B0000490C020009012200190032003900C485D
:1012C000FFF71CFAE06940F40010E061E0690022D9
:1012D00000F40010049011461F2000F073F81F2046
:1012E00000F062F806B010BD00540040001002404B
:1012F000000C014070477047024881680278114431
:101300008160704754000020074810B5016841F023
:1013100010010160032000F075F8002000F006F8CD
:1013200000F024F8002010BD0020024070B50D4DE3
:1013300004464FF47A712878B1FBF0F00A49096845
:10134000B1FBF0F000F062FB48B9102C07D200228C
:101350002146501E00F036F800206C6070BD012060
:1013600070BD000054000020600000200C4808B54B
:10137000816941F001018161816901F00101009100
:10138000C16941F08051C161C06900F08050009096
:101390000448416821F0E06141F00071416008BDFE
:1013A0000010024000000140002809DB00F01F028D
:1013B000012191404009800000F1E020C0F80011B7
:1013C00070470000F0B40E4B1B680C46C3F30223B9
:1013D000C3F10705042D00D90425191D072901D2E1
:1013E000002300E0DB1E012606FA05F1491E21401C
:1013F00099409E40761E16403143F0BC01F0CCBCB3
:101400000CED00E0064900F0070208684FF6FF0304
:10141000184040EA0220034A104308607047000069
:101420000CED00E00000FA052DE9F0470F4605003D
:1014300061D0434E306800F00700B84209D23068EE
:1014400020F0070038433060306800F00700B842F1
:1014500051D128683B4C810712D5400703D56068FD
:1014600040F4E06060602878000703D5606840F4CD
:10147000605060606068A96820F0F0000843606018
:101480002878C00728D06868012810D02168022871
:1014900010D0890700292EDA616821F00301014389
:1014A0006160FFF71BFA804641F288390DE0216840
:1014B0008903EFE78901EDE7FFF710FAA0EB0801D8
:1014C000494502D90320BDE8F0876068696800F0EB
:1014D0000C00B0EB810FEFD1306800F00700B8428C
:1014E0000BD9306820F0070038433060306800F0D6
:1014F0000700B84201D00120E5E72878400705D56C
:101500006068E96820F4E0600843606028780007BC
:1015100006D56068296920F4605040EAC100606027
:1015200000F038F86168084AC1F30311515CC84003
:101530000649086006480068FFF7F8FE0020C2E789
:101540000020024000100240FC3200086000002031
:10155000580000200448054900684968044AC1F35E
:101560000221515CC840704760000020001002401A
:101570000C3300080448054900684968044AC1F36F
:10158000C221515CC840704760000020001002403A
:101590000C33000812A185B00FC98DE80F0014A00C
:1015A000144A006804905168134801F00C03042B9E
:1015B00010D0082B0ED1C1F38343C9031DF80300DB
:1015C0000AD5516804AAC1F34041515C0A4A50430C
:1015D000B0FBF1F005B0704708494843FAE7000056
:1015E00002030405060708090A0B0C0D0E0F101064
:1015F000010200000010024000127A0000093D00C4
:101600002DE9F84F040070D02078C04DC00749D0B4
:101610006868C0F38100012807D06868C0F38100C2
:10162000022809D16868C00306D52868800339D527
:1016300060680028E7D035E06068B0F5803F0BD0E7
:1016400010B1B0F5A02F11D0286820F480302860A8
:10165000286820F4802002E0286840F48030286068
:10166000606890B1FFF73AF906460AE0286840F44E
:1016700080202860F0E700BFFFF730F9801B642866
:1016800073D828688003F7D50CE0FFF727F90646E2
:1016900005E000BFFFF722F9801B6428F0D8286816
:1016A0008003F7D420789A4E80074FF001094FF05D
:1016B000000839D5686810F00C0F07D06868C0F3CF
:1016C0008100022809D16868C00306D42868800711
:1016D00014D52069012808D110E02069B0B1C6F8FE
:1016E0000090FFF7FBF8074605E00AE1FFF7F6F880
:1016F000C01B0228C4D828688007F7D5286861690C
:1017000020F0F80040EAC10028600DE0C6F8008033
:10171000FFF7E4F8074604E0FFF7E0F8C01B0228F3
:1017200023D828688007F7D4207800072CD579487B
:10173000A169D9B1C0F80090FFF7D0F8074604E0DE
:10174000FFF7CCF8C01B02280FD8686A8007F7D5CE
:1017500071484FF4FA510068B0FBF1F0009000BFFF
:101760000098411E0091FAD20EE080E0C0F800809F
:10177000FFF7B4F8074604E0FFF7B0F8C01B0228F3
:1017800075D8686A8007F7D42078400760D5E86983
:101790000027C00008D4E86940F08050E861E8699B
:1017A000012700F0805000905C480168C90513D4FF
:1017B0000168834641F480710160FFF78FF882462B
:1017C00006E000BFFFF78AF8A0EB0A0064284ED8B5
:1017D000DBF80000C005F5D5E06801280AD008B1A3
:1017E000052813D0286A20F001002862286A20F01A
:1017F000040002E0286A40F001002862E06841F23B
:10180000883B98B1FFF76AF882460BE0286A40F0FF
:1018100004002862EEE700BFFFF760F8A0EB0A01C2
:1018200059455AD8286A8007F6D50CE0FFF756F8D4
:10183000824605E0FFF752F8A0EB0A0159454CD863
:10184000286A8007F6D41FB1E86920F08050E8616B
:10185000E06988B36968C1F38101022944D0022894
:10186000C6F8608004D0FFF739F8044638E034E069
:10187000FFF734F8074604E0FFF730F8C01B0228F2
:101880002BD828688001F7D4206AB0F5803F05D1B5
:101890006868A16820F4003008436860D4E9080152
:1018A0000843696821F4741108436860C6F86090C1
:1018B000FFF714F8044606E025E000BFFFF70EF836
:1018C000001B022809D828688001F7D51BE000BF5B
:1018D000FFF704F8001B022802D90320BDE8F88FA7
:1018E00028688001F4D40EE00128F7D06868226AE5
:1018F00000F48031914204D1616A00F47010884292
:1019000001D00120EAE70020E8E7000000100240D3
:10191000000042428004424260000020007000400B
:1019200070B5040005D00025A56294F8510010B1EF
:1019300006E0012070BD84F85050204600F02EF8DB
:10194000022084F851002068016821F04001016004
:10195000D4E901010843D4E9031211430843616942
:101960000843218B01F400710843E1690843216AAF
:101970000843A16A084321680860A069042101EABC
:101980001040216848602068C16921F40061C1618C
:101990006565012084F85100002070BD30B585B028
:1019A000002400940194029403940068144988422E
:1019B00023D11448816941F480518161816901F426
:1019C00080510491816941F00401816180690E4D6B
:1019D00000F004000490A020009002200190032059
:1019E000039069462846FEF789FE4020CDE90004B1
:1019F000694628460294FEF781FE05B030BD00001E
:101A000000300140001002400008014010B5401EA7
:101A1000B0F1807F01D3012010BD4FF0E024606160
:101A20000F21601701F0B8F90020A06107202061A4
:101A3000002010BD7047000070B5026804461068B1
:101A4000D168536910F00F0F50D003F0010501F475
:101A5000907635435DD0C20705D0CA0503D5E26B49
:101A600042F00102E263420705D5DA0703D0E26BD8
:101A700042F00202E263820705D5DA0703D0E26B87
:101A800042F00402E263020705D5DA0703D0E26BF5
:101A900042F00802E263E26B002A33D0800604D5EC
:101AA000880602D5204601F04FF820684069E16BB6
:101AB000C0F38010090700D428B3204601F036F89F
:101AC0002068416949061AD5416921F04001416108
:101AD000606BA0B11B494163606BFEF7ADFD002850
:101AE00010D0606B416BBDE870400847830610D58D
:101AF0008B060ED52046BDE8704001F025B8204683
:101B0000FFF798FF70BD2046FFF794FF0020E063C9
:101B100070BD030606D50B0604D52046BDE870400F
:101B200001F0BAB84006F3D54806F1D5D168204691
:101B300021F04001D160202184F8391000F0FDF837
:101B400070BD00001D2B000870B5040004D094F88F
:101B50003900002510B106E0012070BD84F838502E
:101B6000204600F023F8242084F839002068C1685A
:101B700021F40051C160204601F032F8206801696B
:101B800021F4904101612068416921F02A014161FD
:101B90002068C16841F40051C160E563202084F8E9
:101BA000390084F83A00002070BD000030B585B0DF
:101BB0000024009401940294039400681849884218
:101BC0002CD11848816941F480418161816901F417
:101BD00080410491816941F0040181618069124D65
:101BE00000F0040004904FF4007000900220019077
:101BF0000320039069462846FEF780FD2815CDE9AD
:101C00000004694628460294FEF778FD002211463A
:101C10002520FFF7D7FB2520FFF7C6FB05B030BD19
:101C200000380140001002400008014090F83A30AE
:101C3000202B22D1F9B1F2B190F83830012B1CD011
:101C400081628285C2850021C163222280F83A2008
:101C500080F838100168CA6842F48072CA6001686E
:101C60004A6942F001024A610068C16841F02001FE
:101C7000C160002070470120704702207047704704
:101C80002DE9F843044690F839001F4616460D46E4
:101C9000202850D1A5B19EB194F8380001284AD02F
:101CA000012084F838004FF00008C4F83C8021205F
:101CB00084F83900FEF712FEA6848146E68426E009
:101CC0000120BDE8F883E08C401EE084A0684B460C
:101CD000B0F5805F4FF000024FF080012046009782
:101CE00003D001F00AF8E8B90DE001F006F8C8B930
:101CF00028882168C0F308004860206908B16D1C7D
:101D000005E0AD1C03E0216815F8010B4860E08C8C
:101D10000028D8D14B46002240212046009700F0F1
:101D2000ECFF08B10320CCE7202084F8390084F8C8
:101D300038800020C5E70220C3E77047FEE70000B7
:101D40000148FEF7D3BD00006400002010B5406AD2
:101D500090F83D30426B00219162826B9162026883
:101D6000146824F4806414604185426B5163826B73
:101D700051630268146824F00104146090F83D2057
:101D80002024602A0BD0282232EA03030FD080F8E7
:101D90003D4080F83E1000BFFEF7D5FE10BD80F834
:101DA0003D4080F83E100164FEF79EFD10BD0368C3
:101DB0001C6844F001041C6003681C6844F48064DF
:101DC0001C60016380F83D20E6E7000070B5044622
:101DD00090F83D0094F83E10102906D1222804D135
:101DE00021680A6822F400620A60282131EA0002B0
:101DF0004FF000054FF0200626D0216849680905FC
:101E000003D4602801D084F83D60256384F83E50F7
:101E100020684168090537D5416821F400614160B7
:101E2000606B384990F82120012A11D04163606B22
:101E3000FEF702FC38B32068016821F0010101605F
:101E400084F83D60606B1CE0256384F83D10DFE79B
:101E5000A06B4163A06BFEF7EFFBA0B12068416966
:101E6000C943490605D40069616A0870606A401C6C
:101E700060622068016821F00101016084F83D6022
:101E8000A06B416B884710E094F83D10602923D087
:101E90004169C943490605D40069616A0870606AEE
:101EA000401C60622046FEF74EFE94F83D00216C17
:101EB000490710D528280ED12068416821F4E06137
:101EC00041601148E062256384F83D6084F83E502B
:101ED0002046FEF79FFF70BD84F83D602564416990
:101EE000C943490605D40069616A0870606A401CEC
:101EF00060622068016821F0010101602046FEF760
:101F0000F3FCD2E74D1D00080000FFFF01684A699D
:101F1000D24352050FD46FF480624A61002140F829
:101F2000301F202242738173026942F00402026171
:101F30000173012070470020704710B5C26A438DBD
:101F40000168042B06D0438D032B08D0438D022B50
:101F50001DD012E04A6822F480624A600CE04B68AF
:101F600023F480634B60042A06D0022A04D001685F
:101F70000A6822F480620A6001680969426A117085
:101F8000416A491C4162418D491E418510BD012AAB
:101F900030D0102A2ED0042A30D0022A2ED00A683F
:101FA00042F400720A6001680969426A1170416A6C
:101FB000491C4162428D521E4285026812690A70B4
:101FC000416A491C4162418D491E418501684A6848
:101FD00022F440724A60202180F83D1090F83E20A3
:101FE0000021402A80F83E100CD012210163FEF738
:101FF00012FF10BD0A6822F48062D3E70A6842F437
:102000008062CFE70163FFF7A5F810BD10B590F827
:102010003D10222914D1418D032912D90168096983
:10202000426A1170416A491C4162418D491E4185D5
:10203000418D032904D10068416821F48061416029
:1020400010BDC26A022AFBD0012901D00029F7D1B4
:1020500001680A6822F480620A6001684A6822F412
:10206000E0624A6001680969426A1170416A491C6C
:102070004162418D491E4185202180F83D1090F834
:102080003E200021402A80F83E1004D01221016336
:10209000FEF7C1FE10BD0163FFF75CF810BD2DE92E
:1020A000F84F0446C06A1E4692460D4621680A68EB
:1020B00042F480620A60082807D0012805D010F594
:1020C000803F02D0206B112804D12068016841F4C0
:1020D000807101604FF001185346002241462046AE
:1020E000009600F061FBF0BB206908F10109B0F532
:1020F000804F0FD00620216800EAD51747F0F00086
:1021000008613346524608F10701204600F080FB83
:1021100048BB03E0E8B240F001001BE02168E8B2F0
:102120000861334652464946204600F071FBD0B95B
:102130002068416981690091016841F48071016002
:102140005346002241462046009600F02DFB50B930
:1021500047F0F1002168086133465246494620465F
:1021600000F056FB00E001E0002800D00120BDE8AF
:10217000F88F0000F8B50446C06A1E460D461746A3
:10218000082807D0012805D010F5803F02D0206B29
:10219000122804D12068016841F48071016013465F
:1021A00000224FF001112046009600F0FDFA08BB16
:1021B0002069B0F5804F0ED00620216800EAD510C6
:1021C00040F0F000086133463A460B49204600F0E3
:1021D0001FFB78B902E005F0FE0000E0E8B22168DC
:1021E0000861054933463A46891F204600F010FB36
:1021F000002800D00120F8BD0800010010B5C26A17
:1022000090F83D1021290BD1418D51B1416A0268EE
:1022100009781161416A491C4162418D491E41851D
:1022200010BD20230021082A13D0202A11D012F536
:10223000803F0ED00268546824F4E0645460112298
:10224000026380F83E1080F83D3000BFFEF7E4FDE9
:1022500010BD0268546824F4E06454600268146895
:1022600044F400741460016380F83D3090F83E201F
:1022700080F83E10402AE9D1FEF76DFF10BD000046
:1022800010B590F83D1090F83E30C26A048D64B1EC
:10229000212903D0402B21D122291FD1418DA1B367
:1022A00090F83E10402937D046E02129F2D1202372
:1022B0000021082A13D0202A11D012F5803F0ED019
:1022C0000268546824F4E06454601122026380F8C8
:1022D0003E1080F83D3000BFFEF79EFD10BD026845
:1022E000546824F4E06454600268146844F4007490
:1022F0001460016380F83D3090F83E2080F83E1075
:10230000402AE9D1FEF727FF10BDFFE700684168CA
:1023100021F480614160F7E7016DC1B1016D0129D0
:1023200022D0016D0229EFD190F83D10222923D04F
:1023300090F83D102129E7D1416A026809781161BE
:10234000416A491C4162418D491E4185DCE7C16CEF
:102350000129816C02D0C1F3072107E00268C9B2EC
:102360001161016D891C05E0816CC9B202681161BF
:10237000016D491C0165C7E70068016841F480717F
:102380000160C1E778B590F83E50C26A046B90F8DE
:102390003D6000230168222E73D1066D0EB9402DD9
:1023A0006FD0056D1DB90569B5F5404F1BD0458D42
:1023B00095B3468D484D012E20D0448D022C4DD032
:1023C0000C6844F480640C6001684C68240579D57D
:1023D000AA4273D0012A71D0082A6FD0102A6DD07A
:1023E000202A6BD06EE04A698A6900920A6842F43A
:1023F00080720A60016D491C016578BDAA4214D142
:102400000A6822F480620A6001684A68120504D5ED
:102410000A6822F4806217E0FFE74A698A6900923D
:102420000A6842F400720A6050E0082A10D0202A9C
:102430000ED0122C0AD0042A03D0022A01D0102A6E
:10244000E6D10A6842F480620A603BE0012ADFD0EC
:102450000A6822F480620A600168DEE7042A11D06B
:10246000022A0FD0102A0DD00C6844F400640C60CE
:1024700001684C698C6900940C6824F480640C60D9
:1024800008E025E00C6844F480640C6001684C6945
:102490008969009101684C68240517D5AA4207D0C4
:1024A000012A05D0082A03D0102A01D0202A0DD1F4
:1024B0004A6842F480524A6008E0FFE74A6842F402
:1024C00080524A6001684A6989690091036578BD54
:1024D00048698869009078BD0000FFFF90F83E10C1
:1024E000402910D00169B1F5804F19D0016DB1B309
:1024F000016D012910D1416C5FF0F10201F44071CE
:1025000042EAD11106E0016D0029416C05D0C9B243
:1025100041F0010100680161704701F0FE01F9E737
:1025200090F83D102129416C07D0C9B241F001015A
:1025300002681161416B31B902E001F0FE01F7E779
:10254000826B002AE8D0896A19B9816B896A0029EF
:10255000E2D00068416841F4006141607047FFE7E4
:10256000416CF02201F44071CAE700002DE9F84304
:10257000044600680D46DDE908970168984616464E
:1025800041F4807101604B4600224FF0011120465A
:10259000009700F009F9E0B9216805F0FE00086134
:1025A0003B464A461549204600F032F988B9206872
:1025B0004169806900903A464946204600F0A6F9F4
:1025C00050B1206C042804D12068016841F40071E6
:1025D00001600120BDE8F883F5B2B8F1010F09D020
:1025E0002168300A08613A464946204600F08EF9D3
:1025F0000028E6D1206805610020EBE70200010019
:10260000F8B590F83D6004460068416821F4E06147
:1026100041602068002541690091016841F0010195
:1026200001602068016821F48061016020684168D0
:10263000090520D5474F222E48D02A2E46D0616B5F
:10264000096849686185618D19B1216C41F0040107
:102650002164416821F400614160606BFEF738F845
:10266000012808D0606B4763606BFDF7E5FF10B190
:10267000606B416B8847608D08B320684169C9432E
:10268000490708D40069616A0870606A401C60628A
:10269000608D401E608520684169C943490608D4A1
:1026A0000069616A0870606A401C6062608D401E4B
:1026B0006085608D18B1206C40F004002064206CAF
:1026C00000B32046BDE8F840FFF780BBA16B096866
:1026D00049686185618D19B1216C41F00401216463
:1026E000416821F400614160A06BFDF7F1FF012812
:1026F000C1D0A06B4763A06BFDF79EFF0028BAD046
:10270000A06BB6E72A2E06D12563282084F83D0069
:102710002046FEF7EFFD94F83D10202028290DD02B
:10272000216B222901D0222E07D1256384F83D0098
:1027300084F83E502046FEF7DDFDF8BD0649E16213
:10274000256384F83D0084F83E502046FEF762FB86
:10275000F8BD00004D1D00080000FFFF70B51646D3
:102760000D4604460DE02046FFF7D0FB08B10120DE
:1027700070BD681C05D0FEF7B1F8801BA84207D8D1
:1027800035B120684069C0434007ECD4002070BDDB
:10279000002044F8300F20216173A073216941F0BB
:1027A000200121612073E2E72DE9F0471E469046A3
:1027B0000D460446C1F30747DDF8209008E0701C81
:1027C00006D0FEF78BF8A0EB0900B0420FD876B127
:1027D0002068012F18D0806925EA00000004000C51
:1027E00014D000214145EAD00020BDE8F087002048
:1027F00044F8300F20216173A073216941F020015A
:10280000216120730120F0E74069E5E70121E9E754
:102810002DE9F0479A4691460E46044600254FF0B2
:102820002008C1F3074725E020684069C043400500
:1028300014D42068016841F40071016021686FF4CC
:1028400080604861256384F83D8084F83E50206CA8
:1028500040F00400206484F83C501FE0B9F1FF3FD1
:1028600008D0FEF73BF8A0EB0A0149450CD8B9F1B6
:10287000000F09D02068012F13D0806926EA0000DC
:102880000004000C0BD0CFE744F8305F84F80D80D3
:10289000A573206940F02000206125730120BDE868
:1028A000F0874069EAE72DE9F041002590460E46A1
:1028B0000446202717E04069C043C0060CD454F8F2
:1028C000301B6FF01000486144F810596777A57706
:1028D000206A2062257717E0FEF700F8A0EB0800D9
:1028E000B04208D83EB120684169C9434906E2D4E4
:1028F0000020BDE8F08144F8305F6773A57320695C
:1029000040F02000206125730120F2E770B51646E3
:102910000D4604460DE02046FFF7F8FA08B1012005
:1029200070BD681C05D0FDF7D9FF801BA84207D8F1
:1029300035B120684069C0430006ECD4002070BD6A
:10294000002044F8300F20216173A073216941F009
:10295000200121612073E2E70149486070470000CF
:102960002400002008B500931346012200F002F86D
:1029700008BD00002DE9FF4182B098460C9C174627
:102980000CB94FF47A740B4E45000094012303AA4E
:1029900029467068FEF748FB00943B4642462946AC
:1029A0007068FEF73BFA18B1FF2006B0BDE8F08171
:1029B0003846FAE72400002007B502AB012200F0F8
:1029C00001F80EBD3EB54000CDE900320A46014691
:1029D00006484FF47A74029401234068FEF7BCFB6A
:1029E00008B100203EBD01203EBD000024000020B3
:1029F0000C480B494FF4007201604FF48271416042
:102A000000218160C1600161C0E905121022C0E9A6
:102A10000721416281620A21C162FEF781BF000085
:102A200000300140B8000020FEE770477047704753
:102A3000134841884A1C42800022D1B1012918D094
:102A4000A1F54071E73914D1428001783B2901D2C8
:102A5000491C00E0002111F0FF0309490370497887
:102A600004D13B2901D2491C00E00021054B4170F3
:102A700019704178052900D34270FEF73DBC000073
:102A8000440000202D00002030B58FB0282168467A
:102A9000FDF75FFB14210AA8FDF75BFB0224012070
:102AA000049000941020059000254FF42010CDE9EB
:102AB000085007946846FEF7A3FD0AA90F2081E895
:102AC00031006002CDE90D0501210AA8FEF7ACFC3A
:102AD0000FB030BD0D48016841F00101016041684F
:102AE0000B4A1140416001680A4A114001600168C7
:102AF00021F480210160416821F4FE0141604FF41E
:102B00001F0181600449C003086070470010024043
:102B10000000FFF8FFFFF6FE08ED00E010B5406A88
:102B20000021C185C184FEF785FF10BD0168CA6818
:102B300022F49072CA6001684A6922F001024A6177
:102B4000202180F83A10704710B590F83A102229E9
:102B500001D0022010BD8168B1F5805F11D00169FC
:102B6000002901681FD0496801F07F03816A4A1C6F
:102B700082620B70C18D491E0904090CC18518D0F1
:102B80002BE00269816A002A0268526805D0D2B23D
:102B90000A80816A491C8162ECE7C2F308020A805C
:102BA000816A891CF7E74A68816A4B1C83620A7054
:102BB000E0E70168CA6822F02002CA600168CA68BA
:102BC00022F48072CA6001684A6922F001024A61F7
:102BD000202180F83A10FFF752F8002010BD0000C5
:102BE0002DE9F041044600680169E26821F4405192
:102BF000114301612169A0680843616908432168A4
:102C0000CA6841F20C639A430243CA602068416972
:102C1000A26921F44071114341611E492068642575
:102C20003226884202D1FEF7A5FC01E0FEF792FCB5
:102C300000EBC00101EB001160686FF01807800025
:102C4000B1FBF0F2B2FBF5F2B1FBF0F37A4303EB28
:102C50008202B1FBF0F306EB0212B2FBF5F2B3FB1A
:102C6000F5F302F0F00202EB0312B1FBF0F3B1FB5B
:102C7000F0F0B0FBF5F0784303EB800006EB0010BA
:102C8000B0FBF5F0216800F00F0010448860BDE84B
:102C9000F08100000038014090F83910212901D05E
:102CA000022070478168B1F5805F016A0BD04A1C31
:102CB0000262026809785160C18C491E0904090C3E
:102CC000C1840ED017E009880268C1F30801516081
:102CD00001690029016A02D0491C0162ECE7891CE4
:102CE000FBE70168CA6822F08002CA600068C16818
:102CF00041F04001C160002070472DE9F041984645
:102D000017460E460446069D1DE0681C1BD02DB1DB
:102D1000FDF7E4FDA0EB0800A84214D92068C168C3
:102D200021F4D071C1602068416921F00101416145
:102D3000202084F8390084F83A00002084F8380014
:102D40000320BDE8F0812068006836EA000004D066
:102D50000020B842D9D00020F3E70120F9E70000B5
:102D60000148FEF769BE000010010020FEE70000E8
:102D70000FB4084B10B504A902AA039800F02CF870
:102D8000044602A9002000F087F9204610BC5DF837
:102D900014FB0000993000080907090E002804DB25
:102DA00000F1E02080F80014704700F00F0000F1FF
:102DB000E02080F8141D704702E008C8121F08C107
:102DC000002AFAD170477047002001E001C1121FAC
:102DD000002AFBD1704700002DE9FF4F8DB09B46C4
:102DE0000F460446002606E025280BD05A460F99C8
:102DF0009047641C761C20780028F5D111B030462D
:102E0000BDE8F08F0025A8460122984900E005435F
:102E100014F8013F203B02FA03F00842F7D1207872
:102E20002E2817D114F8010F45F004052A280ED0DA
:102E30006FF02F022078A0F1300109290AD808EBA1
:102E4000880102EB410100EB0108641CF2E757F82E
:102E5000048B641C20786C280DD004DC4C2812D024
:102E60006A2811D104E074280DD07A280CD10AE028
:102E700045F4001507E0617845F48015814202D1E0
:102E8000641C05F58015641C2278692A45D008DC8D
:102E9000002AB3D0582A69D0632A10D0642A08D1F6
:102EA0003BE0702A67D0732A13D0752A5CD0782A49
:102EB0005CD010465A460F999047761CD3E017F81D
:102EC000040B8DF8000000208DF80100E946012078
:102ED00003E057F8049B4FF0FF3069074FF00005FF
:102EE00001D40AE06D1C45450DDA8542FADB19F87C
:102EF00005100029F6D106E06D1C8542FCDB19F8AF
:102F000005100029F8D12E4404E019F8010B5A46A7
:102F10000F9990476D1EF8D2A5E00A200021CDE957
:102F20000801C5F3025002280DD001CFC117031EBE
:102F300071F100030DDA4FF0000CD0EB0C006CEBDC
:102F400001012D2308E0FF1D27F00707F7E8020124
:102F5000EDE72B0504D52B238DF8283001233BE02A
:102F6000EB0739D02023F7E70A2000E010200021EA
:102F7000CDE9080107E01020002145F00405CDE966
:102F800008014FF00808C5F3025002280FD001CF06
:102F900000214FF0000A2B071FD5702A0DD0DDE964
:102FA00008C38CF0100C5CEA030C0CD015E0FF1D7C
:102FB00027F00707F7E80201EBE740228DF8282009
:102FC0004FF0010A0BE050EA010306D030238DF8E0
:102FD00028308DF8292002239A46582A04D024A2AA
:102FE0000DF120090B9209E026A2F9E7DDE908239B
:102FF000FDF77EF90B9B9B5C09F8013D50EA01024D
:10300000F4D1ADEB090020300890680701D44FF0EF
:1030100001080899884502DDA8EB010000E00020C6
:103020008046002506E00AA85A46405D0F99904761
:103030006D1C761C5545F6DB04E030205A460F998E
:103040009047761CB8F10001A8F10108F5DC05E015
:1030500019F8010B5A460F999047761C0899481E9B
:1030600008900029F4DC641CC5E600000928010072
:1030700030313233343536373839616263646566EE
:1030800000000000303132333435363738394142B0
:1030900043444546000000000A68531C0B60107052
:1030A0007047000070B5144C0021144DC4E90411A0
:1030B000E160F420FDF7A2FAF420FDF7A3F9FDF793
:1030C0000BFBFDF7CFF9FDF7FAF8E16845F82100B1
:1030D0002269491C1044C4E903100529E9DB0846AC
:1030E000FDF7E4F805462069FDF7E0F82946FDF70D
:1030F0009FF8606170BD00002C000020D00100200E
:1031000038B5054680211048FDF723F80F4C012003
:10311000E0700006C10D0C4802231A46EC38FDF79A
:10312000CDFDA07040B9E27809A16846FFF720FE06
:1031300069462846FDF718F8E078401CC0B2E070F8
:103140008028E6D338BD0000500100202C0000206C
:1031500030782558200000004F4808B500684F49D6
:103160000024B0FBF1F0401EB0F1807F09D24FF097
:10317000E02148614A4AF02082F8140D8C61072052
:103180000861FEF7C1F8FFF77FFC4648816941F00E
:1031900004018161816901F004010091816941F0BC
:1031A000080181618069404900F0080000903F48B3
:1031B00001603F49C0E901144FF48041C0E9034177
:1031C00044618461C4610462FDF7BEFCFFF710FC3A
:1031D00036483849AC3001604FF41651C0E901144B
:1031E0000C21C460C0E904418461C461FEF7ACFCF9
:1031F0002E48EC30FFF784FF2C48FFF7ADFB00BFF3
:10320000FDF708FA0028FBD0FDF78EF9FFF74AFF1B
:10321000012000F057F86420FDF75EFA26490A22E3
:10322000A1F1D400FEF702FD244E254DF420FDF758
:10323000E5F9F420FDF7E6F8FDF74EFAFDF712F98F
:10324000A8606969FCF7EEFFB0421ADB287800F04D
:1032500039F82878401C28702879401CC0B22871A1
:10326000032805D34FF4FA60FDF736FAFFF71AFF8B
:1032700028780F2801D30120287041F28830FDF70B
:103280002BFA68780528D1D3FFF70CFF6C70C820A3
:10329000FDF722FACAE7000060000020006CDC02A3
:1032A0000FE000E0001002400054004064000020E5
:1032B000801A060000380140E40100200000164397
:1032C0002C00002010B50B4C4FF47A730A22A17920
:1032D0000144A171217A081A207221460648FEF79E
:1032E000CFFC6420FDF7F8F90020A071E9202072DE
:1032F00010BD000048000020100100200000000068
:103300000000000001020304060708090000000095
:1033100001020304343300080000002064000000B0
:10332000B82D000898330008640000208C050000C8
:10333000C82D000877000000000000000000000019
:10334000000000000000000000000000000000007D
:103350000000000000000000E80300000000000082
:10336000010000000000000000000000000000005C
:103370000000000000000000000000007EFF0612B8
:10338000000000FEE9EF0000010000001000000056
:08339000000000000024F4001D
:04000005080000ED02
:00000001FF
