:020000040800F2
:10000000C0050020010100084B2D00085D200008FC
:10001000492D0008890B0008A12E000800000000EF
:100020000000000000000000000000004F2D00084C
:100030008B0B0008000000004D2D0008512D00081A
:100040001B0100081B0100081B0100081B01000820
:100050001B0100081B0100081B0100081B01000810
:100060001B0100081B0100081B0100081B01000800
:100070001B0100081B0100081B0100081B010008F0
:100080001B0100081B0100081B0100081B010008E0
:100090001B0100081B0100081B0100081B010008D0
:1000A0001B0100081B0100081B0100081B010008C0
:1000B0001B0100081B0100081B010008612000084B
:1000C0001B0100081B0100081B0100081B010008A0
:1000D0001B0100081B0100081B0100081B01000890
:1000E0001B0100081B0100081B010008DFF80CD0F1
:1000F00000F06AFB0048004751330008C0050020AB
:100100000648804706480047FEE7FEE7FEE7FEE7B1
:10011000FEE7FEE7FEE7FEE7FEE7FEE7A12D0008AB
:10012000ED000008202A04DB203A21FA02F0002129
:10013000704721FA02F3D040C2F1200291400843F7
:1001400019467047D2B201E000F8012B491EFBD2DC
:1001500070470022F6E710B513460A4604461946D2
:10016000FFF7F0FF204610BD421E12F8013F002BA2
:10017000FBD111F8013B02F8013B002BF9D170478C
:1001800030B480EA010202F0004530F0004221F074
:10019000004013D090B1C30DD40DC2F31601C0F3CB
:1001A0001600E41A41F4000140F400027D3491424B
:1001B00001D3641C00E04900002C02DA30BC0020AE
:1001C00070474FF400000023914201D3891A034382
:1001D00040084FEA4101F7D151B1914202D14FF0AD
:1001E000004105E002D24FF0010101E06FF0010192
:1001F00003EBC450284430BC00F0A3B92DE9FE4FF6
:10020000804681EA0300C00F0C46009021F00041B7
:1002100023F00045B8EB0200A94105D24046214633
:1002200090461C460B46024623F00040104347D040
:10023000270DC7F30A00C3F30A510290401A019038
:1002400040286BDAC3F3130040F4801B00989246F9
:1002500020B10023D2EB030A63EB0B0B0198594644
:10026000C0F14002504600F04BF906460D4650469C
:100270005946019A00F053F910EB0800614100243F
:1002800087EA115284EAE7731A4340D0009A62B3B6
:10029000019A012A4FEA075215DC001B61EB0201AB
:1002A0004FF0004202EA0752CDE90042001C41F53E
:1002B000801132462B4600F08AF903B0BDE8F08F7A
:1002C00040462146F9E7001B61EB0201001C41F5A5
:1002D000801300185B412018A2F5001747EB0301BB
:1002E00040EAD570B6196D4111E06D084FEA360647
:1002F00045EAC0754FEA0752001B61EB0201001C82
:1003000041F5801149084FEA300000195141324649
:100310002B4603B0BDE8F04F00F04AB90098012227
:1003200040000023D0EB020263EBE073009821460B
:100330004FEAE074B8EB000061EB0401E9E783F0F9
:1003400000435BE781F0004158E72DE9FE4F81EA69
:10035000030404F0004421F0004100944FF0000B2E
:1003600023F0004350EA01045ED052EA03045BD05C
:10037000C3F30A54C1F30A552C44A4F2F334019494
:10038000A0FB0254C1F3130141F48011C3F3130322
:1003900043F4801301FB024400FB034E840A970AD6
:1003A00044EA815447EA8357A4FB076802958D0A03
:1003B00005FB07854FEA932C04FB0C542705029D8F
:1003C0004FEA065847EA1637B5EB08056EEB070CFF
:1003D000870E920E47EA811742EA8312A7FB0201B9
:1003E000B6EB0B0164EB00042B0D43EA0C335E18F3
:1003F00044EB1C50DA465146E7FB0201C5F31304F7
:100400004FEA0B3343EA14534FEA0432019C43EAA8
:100410000603A4F10C040294009CCDE900B400F0A2
:10042000D6F803B0BDE8F08F00200146F9E7C10F10
:1004300080EAE0700844CA079623002100F08AB8D9
:1004400000F0004230F000400AD0C10D01F56071AB
:10045000C0F3160042EA0151C20840071143704739
:1004600000200146704701F0004330B421F0004104
:1004700050EA010206D00A0DA2F56072C1F3130121
:10048000002A02DC30BC00207047440F44EAC1045B
:10049000C100E01830BC00EBC25000F052B82DE9AA
:1004A000F05F0546002092469B46884606468146F8
:1004B00040241BE02846414647462246FFF732FECD
:1004C00053465A46C01A914110D311461846224647
:1004D00000F016F82D1A67EB01084F46224601205E
:1004E000002100F00DF817EB00094E41201EA4F189
:1004F0000104DFDC484631462A464346BDE8F09F0A
:10050000202A04DB203A00FA02F1002070479140D3
:10051000C2F1200320FA03F3194390407047202AC8
:1005200006DBCB17203A41FA02F043EAE07306E01B
:1005300041FA02F3D040C2F120029140084319462B
:1005400070470029A8BF7047401C490008BF20F031
:100550000100704710B4B0FA80FC00FA0CF050EAC9
:10056000010404BF10BC704749B1CCF1200421FA4A
:1005700004F411FA0CF118BF012121430843A3EB45
:100580000C01CB1D4FEA00614FEA102042BF002052
:1005900010BC704700EBC35010440029A4BF10BC2E
:1005A0007047401C490008BF20F0010010BC704794
:1005B00010B5141E73F1000408DA401C41F100016B
:1005C00092185B411A4301D120F0010010BD2DE9C2
:1005D000F04D92469B4611B1B1FA81F202E0B0FAB9
:1005E00080F220329046FFF78BFF04460F4640EA28
:1005F0000A0041EA0B0153465A46084313D01146FC
:1006000053EA010019D0C8F140025046FFF78AFDB5
:1006100005460E46504659464246FFF771FF0843CD
:1006200005D0012004E020463946BDE8F08D0020C9
:10063000054346EAE0762C4337430A986305E40A0B
:10064000A0EB08000022FD0A44EA47540A3002D514
:1006500000200146E9E7010510196941DDE9084577
:1006600000196941BDE8F04DA2E72DE9F04D81EA9E
:10067000030404F0004B21F0004514464FF0000A3B
:1006800023F0004150EA050220D054EA01021DD0B7
:10069000C5F30A570246C5F31303C1F31300C1F3B0
:1006A0000A5640F4801543F48013A7EB0608101B8C
:1006B000D64608F2FD3873EB050002D308F10108B5
:1006C00001E092185B41B8F1000F03DA0020014607
:1006D000BDE8F08D00204FF48011064684460EE000
:1006E000171B73EB050705D3121B63EB05030643CA
:1006F0004CEA010C49084FEA300092185B4150EA7D
:100700000107EDD152EA030012D082EA040083EA25
:100710000501084305D0101BAB4106D2012200237E
:1007200006E000224FF0004302E06FF00102531098
:100730001AEB06004CEB085110EB0A0041EB0B01E1
:10074000BDE8F04DFFF734BF70B521F0004303431F
:100750000CD0C1F30A550024D5EB040564EB040367
:10076000D617AD1AB34102DB0020014670BD201838
:1007700041EB025170BD0EB5C10F80EAE070084434
:10078000CA07002140F233438DE80E000A460B46AB
:10079000FFF71DFF03B000BD30B5041E71F100046A
:1007A00004DB4FF00044404264EB0101141E73F17E
:1007B000000405DB1C464FF00043524263EB040388
:1007C000994208BF904230BD064C074D06E0E068F4
:1007D00040F0010394E8070098471034AC42F6D388
:1007E000FFF788FC003F0008203F00082DE9F04D8E
:1007F00000231A461B1A8A4103DB00200146BDE88C
:10080000F08DC1F30A52C1F3130141F480154FF08A
:10081000000BD10702D100186D41521E002704467B
:1008200040F2FF11384601EB620A3E46804602461E
:1008300000204FF48011FFF775FCC2197141BB18FD
:1008400046EB0100B4EB030C75EB000C04D3E41A87
:1008500065EB000517460E46241908F101006D41AD
:1008600080463428E3DDF91946EB0600091BA84150
:1008700003D24FF0FF32134601E0002213461BEB78
:10088000070046EB0A51BDE8F04DFFF791BE0000AE
:1008900010B511F0FF4F00D10A49FFF771FCFFF7C7
:1008A000CFFD094A094B02F0C5FD0022084BFFF7B6
:1008B00049FD0022074BFFF748FDBDE81040FFF758
:1008C000D2BD000080E6C547EBE2361AC05BC83FE8
:1008D0000000F03F40A5E5400A4840782E2809D0A6
:1008E000342807D0742807D0B42807D0F42807D0BC
:1008F0000020704705207047082070470E20704781
:100900001A2070470000002008B54FF47A70084B99
:100910000090A3F118000222F621007802F0BAF943
:1009200003484178007801EB002080B208BD000048
:100930001800002008B54FF47A70094B0090A3F11D
:1009400018000322F621007802F0A4F90448017887
:1009500042780904807801EB0221084408BD0000B8
:100960001800002070B500F04FF825494A78B1F919
:100970000A5093090A6AB1F90460A2F57A6202FB8F
:1009800002F424136543ED12564305EBE625B1F955
:10099000026005EB86059D40B1F90660AD1C56432B
:1009A0007213B1F90860498A744302EB2442921C25
:1009B000921002F500425143C90B4CF25032A0EBA9
:1009C000A500DA405043B0F1004F03D24000B0FB25
:1009D000F1F002E0B0FBF1F040000112494340F6B3
:1009E000DE325143074A09144243BDE8704001EB2F
:1009F000224101F6CF6100EB2110FFF718BD000086
:100A00000000002043E3FFFF10B5064C607810F0B3
:100A1000340006D0FFF78EFF61780822A2EB911117
:100A2000C84010BD00000020034840782E2801D0A7
:100A300000207047FFF768BF0000002010B5FFF7E7
:100A4000F3FF0C49CA8AB1F91030801A8A8A5043E0
:100A5000B1F90E20C013D202034492FBF3F210440A
:100A6000086208300011FFF7E2FCBDE810400249BF
:100A7000FFF786BB000000200000204103480178FA
:100A800009B97721017000F003B8000000000020D0
:100A900010B588B02D4C4FF47A70009001AB16223F
:100AA000AA21207802F0F6F89DF805009DF80410C0
:100AB00000EB012060809DF807009DF8061000EB18
:100AC0000120A0809DF809009DF8081000EB01208E
:100AD000E0809DF80B009DF80A1000EB0120608279
:100AE0009DF80D009DF80C1000EB0120A0829DF8F0
:100AF0000F009DF80E1000EB0120E0829DF8110020
:100B00009DF8101000EB012020819DF813009DF846
:100B1000121000EB012060819DF815009DF8141063
:100B200000EB0120A0819DF817009DF8161000EB46
:100B30000120E0819DF819009DF8181000EB0120BC
:100B400020820120E06108B010BD000000000020FC
:100B500070B5044D04460246F421287802F0BCF832
:100B60006C7070BD00000020064A10B5A2F118009C
:100B70006423AA21007802F085F8012800D0002023
:100B800010BD000018000020FEE7704710B590F877
:100B900021100024022903D00421816301243DE0B7
:100BA00001680A6822F00E020A6001680A6822F0F1
:100BB00001020A601A4A0168914201D1012121E033
:100BC000174A1432914201D110211BE0144A2832F5
:100BD000914201D1891515E0114A3C32914201D16F
:100BE00089140FE00E4A5032914202D14FF4803105
:100BF00008E00B4A6432914202D14FF4801101E0C7
:100C00004FF08071064A083A5160012180F82110A6
:100C1000002180F82010416B01B18847204610BDAB
:100C20000800024090F821007047000070B50446AB
:100C300000F0FEF80546601C02D004480078044429
:100C400000F0F6F8401BA042FAD370BD3C00002033
:100C50002DE9F84FDFF8B891002409F1040A0AF1F0
:100C6000040B23460F270BF1040EC9E00125A54014
:100C70002A40AA427DD1674ED1F804C0ACEB0608E9
:100C8000B44532D014DCBCF1030F3AD009DCBCF11E
:100C9000000F2AD0BCF1010F1CD0BCF1020F31D1E2
:100CA0001DE0BCF1110F17D0BCF1120F2AD119E0D1
:100CB000B8F5881F19D006DCB8F5803F15D0B8F517
:100CC000801F1FD111E0B8F5001F0ED0B8F5041F2A
:100CD00018D10AE0CB6815E0CB681B1D12E0CB6889
:100CE00008330FE0CB680C330CE08B682BB1012B81
:100CF0004FF0080303D0456104E0042302E00561DE
:100D000000E00023FF2A01D8064601E000F10406B6
:100D10004FEA840501D9A5F12005D6F8008007FA2D
:100D200005FC28EA0C0803FA05F548EA0508C6F8A8
:100D300000804D68ED0062D5374DAE6946F0010682
:100D4000AE61AD6924F0030605F001050095334D51
:100D500006EB050CDCF80850A607360F07FA06F874
:100D600025EA0805DFF8B880404503D14FF00008B8
:100D700017E044E0DFF8AC80404502D14FF00108B5
:100D80000FE0DFF8A480404502D14FF0020808E0F0
:100D9000DFF89880404502D14FF0030801E04FF0A2
:100DA000040808FA06F848EA0508CCF808804D68F7
:100DB000D9F80060ED034D4601D5164300E0964397
:100DC0002E604D68DAF80060AD03554601D5164334
:100DD00000E096432E604D68DBF80060ED025D4652
:100DE00001D5164300E096432E604D68DEF80060A2
:100DF000AD02754601D5164300E096432E60641C93
:100E00000D682A46E5407FF431AFBDE8F88F000059
:100E100000040140000011100010024000000140D9
:100E200000080140000C0140001001400014014086
:100E300001488068704700003C0000207047704700
:100E40002DE9F041026800245168C56A90F83E30EF
:100E500090F83D60102B1CD0402B1AD0036C002B57
:100E60007ED053694FF02805DB439F0779D4CF43E9
:100E7000BF0576D4016C01B1946990F83D30002132
:100E80009D430B467FD0C91E516180F83C30BDE8C0
:100E9000F081946953694FF42A07DB435FEAC37C0E
:100EA0004FF02A4604D0BD42F1D0B542EFD010E059
:100EB000CD43AD050DD4C16AB94201D1012103E092
:100EC000C16AB14201D10821C162BDE8F04101F01F
:100ED00095BC1D0716D4CD43AD0513D4416CC9B2E2
:100EE0001161416B11B9826B002AD0D0896A19B99E
:100EF000816B896A0029CAD00068416841F40061A9
:100F00004160C4E79D0706D4CD43AD0503D4BDE8D9
:100F1000F04101F0C7BBE443526864074FEA025254
:100F200015D4002AB3DB1A0608D4CA43520505D4E7
:100F30005A0705D5BDE8F04101F032BB5A07A6D4E7
:100F4000C9438905A3D4BDE8F04101F0E7BA002AFE
:100F50009DDB5A060CD4CA43520509D45A0702E055
:100F60000FE023E00FE005D5BDE8F04101F0DEB968
:100F70005A078CD4C943890589D4BDE8F04101F0F2
:100F80006CB994696DE7556825F480655560E24356
:100F9000540700D50121120601D5828900E0028B99
:100FA00080F83C3092B2FFF74AFF70E7DC0606D4C7
:100FB000CC43A40503D4BDE8F04101F0B1BC212E1F
:100FC00027D0292E25D05C0655D4CC43640552D4B5
:100FD0005B0752D590F83D10438D002B91D01269DC
:100FE000436A1A70426A521C4262428D521E428506
:100FF000428D002A85D12A29D7D101684A6822F476
:1010000080624A602221016380F83D5000F01CFCA0
:101010003DE71C0623D4CC43640520D45B0720D5D0
:1010200090F83D10438D002BBFD0436A1B781361AD
:10103000426A521C4262428D521E4285428D002AF3
:10104000B3D12929B1D101684A6822F480624A608B
:101050002121016380F83D5000F0F7FB17E75B07A3
:10106000A3D4C9438905A0D4418D00299DD0416AEC
:10107000097811610AE05B0797D4C943890594D4C4
:10108000418D002991D01169426A1170416A491C51
:101090004162418D491E4185F9E6704770B50400F3
:1010A0001BD094F83D00002520B984F83C50204620
:1010B00000F094FB242084F83D002068016821F0B2
:1010C0000101016000F0F0FC4D4A6168914201D8D5
:1010D0004C4900E04C49884201D2012070BD4B4987
:1010E0002368B0FBF1F15E6826F03F060E435E60B8
:1010F0006368934206D94FF4967359434FF47A7359
:10110000B1FBF3F12368491C1E6A26F03F06314308
:1011100019626168914210D84900401EB0FBF1F29B
:10112000521CC2F30B02042A01D2042022E0B0FBBD
:10113000F1F0401CC0F30B001CE0A368F3B301EB1B
:10114000C10202EB0116421EB2FBF6F2521C42F43F
:101150008042120549D093B301EBC10202EB0111A9
:10116000401EB0FBF1F0401CC0F30B0040F4804087
:1011700040F400402168CA694CF6FF739A4310435B
:10118000C861D4E90701084321680A6822F0C00257
:1011900010430860D4E9030101432068826848F2E3
:1011A000FF339A4311438160D4E905010843216864
:1011B000CA6822F0FF021043C86001E00EE016E0AA
:1011C0002068016841F0010101602564202084F855
:1011D0003D00256384F83E50002070BD01EB4106C0
:1011E000421EB2FBF6F2521CB3E70120C2E701EB4C
:1011F0004101401EB0FBF1F0401CC0F30B00B7E70B
:10120000A086010080841E0000093D0040420F00BE
:101210002DE9FF4F81B089460446FFF709FE0546D8
:1012200094F83D004FF0010820287AD119230122BB
:101230004B492046009501F047FC002871D194F8F5
:101240003C0001286DD0012084F83C002068016832
:10125000C90703D1016841F00101016020680168FC
:1012600021F400610160242084F83D0000262664FA
:101270003C48E0624FF0011B20272068016841F4E0
:10128000807101600095002259462046049B01F0C0
:101290001BFC002856D1216809F0FE000861FFF709
:1012A000C7FD2168054648694969C0F34000C1F39C
:1012B00080214FF0A00A0FE0FFF7BAFD411B049810
:1012C000814200D808B984F83DA02168486949697D
:1012D000C0F34000C1F3802194F83D20A02A02D041
:1012E00008B90029E8D084F83D7020684169C943F5
:1012F000890717D4016841F40071016020684169D1
:1013000080691923012216492046009501F0DCFB73
:10131000C0B984F83D7084F83C60002005B0BDE899
:10132000F08F1BE0016841F40071016021686FF4E7
:10133000806048611923012209492046009501F087
:10134000C3FB08B10120E9E7039808F101088045D3
:1013500093D384F83D7084F83C60F3E70220DDE726
:10136000020010000000FFFF704770477047000048
:101370002DE9F84F1F4690468A460446DDF828902E
:10138000FFF756FD054694F83D00202879D1192332
:10139000012277492046009501F096FB0028F5D1FF
:1013A00094F83C0001286CD0012084F83C002068AF
:1013B0000168C90703D1016841F00101016020689B
:1013C000016821F400610160222084F83D001020B2
:1013D00084F83E0000262664C4F824806785608D6A
:1013E00020856448E0622B464A465146204600F07C
:1013F000E6FF00287ED1208D5F4F68B1012814D010
:101400000228206801681ED041F4806101602068D4
:101410004169806900909DE020684169816900917F
:10142000016841F40071016094E02068016821F4D2
:101430008061016072B6206841698169009101682C
:1014400041F400710AE041F40061016072B6206865
:10145000416981690091016821F48061016062B68F
:1014600078E0032850D801280CD002284B464FF0D2
:1014700000023946204600950FD001F025FBC8BB7D
:1014800010E073E02A464946204601F09CFB88BBE9
:1014900020680069616A087053E001F015FB48BBE1
:1014A00072B61AE02068016821F48061016072B6AA
:1014B00020680069616A0870606A401C6062208D63
:1014C000401E2085608D401E60854B4600223946B7
:1014D0002046009501F0F8FA60B92068016841F4EF
:1014E0000071016020680069616A0870606A401CD0
:1014F000606200E00EE0218D491E2185618D491E4C
:10150000618562B621681AE02A464946204601F004
:101510005AFB10B10120BDE8F88F20680069616AAC
:101520000870606A401C6062218D491E2185618DB2
:10153000491E618521684A69D24352070AD4096964
:101540000170606A401C6062208D401E2085608DA5
:10155000401E6085208D002883D1202084F83D0026
:1015600084F83E6084F83C600020D4E70220D2E793
:10157000020010000000FFFF040001002DE9F84FF9
:101580001F4690468A460446DDF82890FFF750FC37
:10159000054694F83D0020287FD1192301224049B7
:1015A0002046009501F090FA002876D194F83C008E
:1015B000012872D0012084F83C0020680168C90726
:1015C00003D1016841F0010101602068016821F444
:1015D00000610160212084F83D00102084F83E0065
:1015E00000262664C4F824806785608D20852D48F8
:1015F000E0622B464A465146204600F04BFF90B928
:10160000206841698069009036E02A4649462046B4
:1016100001F00CFB50B1206C042804D12068016853
:1016200041F4007101600120BDE8F88F606A216813
:1016300000780861606A401C6062618D491E6185A6
:10164000218D491E89B2218522685369DB435B07DE
:101650000BD451B100781061606A401C6062608DEB
:10166000401E6085208D401E20852A464946204622
:1016700001F004FA0028CED1208D0028C5D154F8FD
:101680003D0B016841F400710160202004F81E093F
:10169000E67766770020C7E7FFE70220C4E700008F
:1016A000020010000000FFFF704770472DE9FF4F58
:1016B00083B09A46DDE9119793460446DDF84080F1
:1016C000FFF7B6FB054694F83D0020287FD119238B
:1016D000012240492046009501F0F6F9002876D114
:1016E00094F83C00012872D0012084F83C00206866
:1016F0000168C90703D1016841F001010160206858
:10170000016821F400610160212084F83D0040203F
:1017100084F83E0000262664C4F82480A4F82A90A9
:10172000608D20852C48E062CDE9007553465A460D
:101730002046049901F0AAF870B930E02A463946EB
:10174000204601F073FA58B1206C042804D12068B7
:10175000016841F400710160012007B0BDE8F08F1D
:10176000606A216800780861606A401C6062218DAF
:10177000491E89B22185628D521E62852268536995
:10178000DB435B070BD469B100781061606A401CD1
:101790006062208D401E2085608D401E6085208DFA
:1017A0000028CBD12A463946204601F067F90028A7
:1017B000CAD154F83D0B016841F40071016020204A
:1017C00004F81E09E67766770020C6E7FFE70220E7
:1017D000C3E70000020010000000FFFF10B586B054
:1017E0000021009101910291039100681349884200
:1017F00022D1134CA06940F00800A061A06969469D
:1018000000F008000490C0200090122001900320F6
:1018100003900C48FFF71CFAE06940F40010E06107
:10182000E069002200F40010049011461F2000F02F
:1018300073F81F2000F062F806B010BD005400409D
:1018400000100240000C0140704770470248816858
:1018500002781144816070473C000020074810B5B1
:10186000016841F010010160032000F075F80020CC
:1018700000F006F800F024F8002010BD002002401F
:1018800070B50D4D04464FF47A712878B1FBF0F035
:101890000A490968B1FBF0F000F062FB48B9102C6E
:1018A00007D200222146501E00F036F800206C605E
:1018B00070BD012070BD00003C00002048000020E9
:1018C0000C4808B5816941F001018161816901F02D
:1018D00001010091C16941F08051C161C06900F00E
:1018E000805000900448416821F0E06141F00071AF
:1018F000416008BD0010024000000140002809DBE3
:1019000000F01F02012191404009800000F1E02019
:10191000C0F8001170470000F0B40E4B1B680C4675
:10192000C3F30223C3F10705042D00D90425191DB3
:10193000072901D2002300E0DB1E012606FA05F18B
:10194000491E214099409E40761E16403143F0BC0E
:1019500001F0D0BA0CED00E0064900F0070208687B
:101960004FF6FF03184040EA0220034A1043086084
:10197000704700000CED00E00000FA052DE9F0478B
:101980000F46050061D0434E306800F00700B842B2
:1019900009D2306820F0070038433060306800F02A
:1019A0000700B84251D128683B4C810712D5400747
:1019B00003D5606840F4E06060602878000703D5D4
:1019C000606840F4605060606068A96820F0F000D2
:1019D000084360602878C00728D06868012810D0C4
:1019E0002168022810D0890700292EDA616821F0C9
:1019F000030101436160FFF71BFA804641F2883919
:101A00000DE021688903EFE78901EDE7FFF710FAA0
:101A1000A0EB0801494502D90320BDE8F0876068C2
:101A2000696800F00C00B0EB810FEFD1306800F076
:101A30000700B8420BD9306820F007003843306007
:101A4000306800F00700B84201D00120E5E72878AF
:101A5000400705D56068E96820F4E06008436060ED
:101A60002878000706D56068296920F4605040EAAC
:101A7000C100606000F038F86168084AC1F30311E2
:101A8000515CC8400649086006480068FFF7F8FE48
:101A90000020C2E70020024000100240583E00082B
:101AA00048000020400000200448054900684968BB
:101AB000044AC1F30221515CC8407047480000202D
:101AC00000100240683E0008044805490068496863
:101AD000044AC1F3C221515CC8407047480000204D
:101AE00000100240683E000812A185B00FC98DE8C1
:101AF0000F0014A0144A006804905168134801F0C4
:101B00000C03042B10D0082B0ED1C1F38343C9035F
:101B10001DF803000AD5516804AAC1F34041515C85
:101B20000A4A5043B0FBF1F005B0704708494843FA
:101B3000FAE7000002030405060708090A0B0C0D6A
:101B40000E0F1010010200000010024000127A0077
:101B500000093D002DE9F84F040070D02078C04DF9
:101B6000C00749D06868C0F38100012807D06868C1
:101B7000C0F38100022809D16868C00306D528682F
:101B8000800339D560680028E7D035E06068B0F59B
:101B9000803F0BD010B1B0F5A02F11D0286820F4F1
:101BA00080302860286820F4802002E0286840F413
:101BB00080302860606890B1FFF73AF906460AE085
:101BC000286840F480202860F0E700BFFFF730F974
:101BD000801B642873D828688003F7D50CE0FFF7D2
:101BE00027F9064605E000BFFFF722F9801B6428AD
:101BF000F0D828688003F7D420789A4E80074FF0F9
:101C000001094FF0000839D5686810F00C0F07D0B3
:101C10006868C0F38100022809D16868C00306D44F
:101C20002868800714D52069012808D110E02069B0
:101C3000B0B1C6F80090FFF7FBF8074605E00AE1EF
:101C4000FFF7F6F8C01B0228C4D828688007F7D52C
:101C50002868616920F0F80040EAC10028600DE0C2
:101C6000C6F80080FFF7E4F8074604E0FFF7E0F865
:101C7000C01B022823D828688007F7D420780007E3
:101C80002CD57948A169D9B1C0F80090FFF7D0F8F8
:101C9000074604E0FFF7CCF8C01B02280FD8686A9B
:101CA0008007F7D571484FF4FA510068B0FBF1F0A6
:101CB000009000BF0098411E0091FAD20EE080E033
:101CC000C0F80080FFF7B4F8074604E0FFF7B0F86B
:101CD000C01B022875D8686A8007F7D420784007AF
:101CE00060D5E8690027C00008D4E86940F080505A
:101CF000E861E869012700F0805000905C480168C5
:101D0000C90513D40168834641F480710160FFF76F
:101D10008FF8824606E000BFFFF78AF8A0EB0A00C2
:101D200064284ED8DBF80000C005F5D5E06801282E
:101D30000AD008B1052813D0286A20F001002862D3
:101D4000286A20F0040002E0286A40F001002862BE
:101D5000E06841F2883B98B1FFF76AF882460BE0F1
:101D6000286A40F004002862EEE700BFFFF760F841
:101D7000A0EB0A0159455AD8286A8007F6D50CE02D
:101D8000FFF756F8824605E0FFF752F8A0EB0A018C
:101D900059454CD8286A8007F6D41FB1E86920F06D
:101DA0008050E861E06988B36968C1F38101022964
:101DB00044D00228C6F8608004D0FFF739F8044602
:101DC00038E034E0FFF734F8074604E0FFF730F876
:101DD000C01B02282BD828688001F7D4206AB0F5F0
:101DE000803F05D16868A16820F40030084368602E
:101DF000D4E908010843696821F474110843686054
:101E0000C6F86090FFF714F8044606E025E000BF2E
:101E1000FFF70EF8001B022809D828688001F7D5C3
:101E20001BE000BFFFF704F8001B022802D90320C3
:101E3000BDE8F88F28688001F4D40EE00128F7D0BF
:101E40006868226A00F48031914204D1616A00F42A
:101E50007010884201D00120EAE70020E8E7000086
:101E6000001002400000424280044242480000202C
:101E70000070004070B5040005D00025A56294F8FC
:101E8000510010B106E0012070BD84F8505020468A
:101E900000F02EF8022084F851002068016821F03B
:101EA00040010160D4E901010843D4E90312114360
:101EB000084361690843218B01F400710843E1691B
:101EC0000843216A0843A16A084321680860A069A1
:101ED000042101EA1040216848602068C16921F4AA
:101EE0000061C1616565012084F85100002070BD6A
:101EF00030B585B0002400940194029403940068E6
:101F00001449884223D11448816941F48051816188
:101F1000816901F480510491816941F0040181617A
:101F200080690E4D00F004000490A0200090022073
:101F300001900320039069462846FEF789FE402061
:101F4000CDE90004694628460294FEF781FE05B0FB
:101F500030BD000000300140001002400008014088
:101F600010B5401EB0F1807F01D3012010BD4FF0AD
:101F7000E02460610F21601700F0BCFF0020A06129
:101F800007202061002010BD70B5040004D094F833
:101F90003900002510B106E0012070BD84F83850EA
:101FA000204600F023F8242084F839002068C16816
:101FB00021F40051C160204600F016FF206801693D
:101FC00021F4904101612068416921F02A014161B9
:101FD0002068C16841F40051C160E563202084F8A5
:101FE000390084F83A00002070BD000030B585B09B
:101FF00000240094019402940394006814498842D8
:1020000024D11448816941F480418161816901F4DE
:1020100080410491816941F00401816180690E4D24
:1020200000F0040004904FF4007000900220019032
:102030000320039069462846FEF70AFE2815CDE9DD
:102040000004694628460294FEF702FE05B030BD42
:10205000003801400010024000080140FEE7000087
:102060000148FEF7EDBE00005000002010B5406AA8
:1020700090F83D30426B00219162826B9162026860
:10208000146824F4806414604185426B5163826B50
:1020900051630268146824F00104146090F83D2034
:1020A0002024602A0BD0282232EA03030FD080F8C4
:1020B0003D4080F83E1000BFFEF7EFFF10BD80F8F6
:1020C0003D4080F83E100164FEF7B8FE10BD036885
:1020D0001C6844F001041C6003681C6844F48064BC
:1020E0001C60016380F83D20E6E7000070B50446FF
:1020F00090F83D0094F83E10102906D1222804D112
:1021000021680A6822F400620A60282131EA00028C
:102110004FF000054FF0200626D0216849680905D8
:1021200003D4602801D084F83D60256384F83E50D4
:1021300020684168090537D5416821F40061416094
:10214000606B384990F82120012A11D04163606BFF
:10215000FEF71CFD38B32068016821F00101016021
:1021600084F83D60606B1CE0256384F83D10DFE778
:10217000A06B4163A06BFEF709FDA0B12068416927
:10218000C943490605D40069616A0870606A401C49
:1021900060622068016821F00101016084F83D60FF
:1021A000A06B416B884710E094F83D10602923D064
:1021B0004169C943490605D40069616A0870606ACB
:1021C000401C60622046FEF768FF94F83D00216CD9
:1021D000490710D528280ED12068416821F4E06114
:1021E00041601148E062256384F83D6084F83E5008
:1021F0002046FFF7B9F870BD84F83D602564416959
:10220000C943490605D40069616A0870606A401CC8
:1022100060622068016821F0010101602046FEF73C
:102220000DFED2E76D2000080000FFFF01684A693B
:10223000D24352050FD46FF480624A61002140F806
:10224000301F202242738173026942F0040202614E
:102250000173012070470020704710B5C26A438D9A
:102260000168042B06D0438D032B08D0438D022B2D
:102270001DD012E04A6822F480624A600CE04B688C
:1022800023F480634B60042A06D0022A04D001683C
:102290000A6822F480620A6001680969426A117062
:1022A000416A491C4162418D491E418510BD012A88
:1022B00030D0102A2ED0042A30D0022A2ED00A681C
:1022C00042F400720A6001680969426A1170416A49
:1022D000491C4162428D521E4285026812690A7091
:1022E000416A491C4162418D491E418501684A6825
:1022F00022F440724A60202180F83D1090F83E2080
:102300000021402A80F83E100CD012210163FFF713
:102310002CF810BD0A6822F48062D3E70A6842F400
:102320008062CFE70163FFF7BFF910BD10B590F8E9
:102330003D10222914D1418D032912D90168096960
:10234000426A1170416A491C4162418D491E4185B2
:10235000418D032904D10068416821F48061416006
:1023600010BDC26A022AFBD0012901D00029F7D191
:1023700001680A6822F480620A6001684A6822F4EF
:10238000E0624A6001680969426A1170416A491C49
:102390004162418D491E4185202180F83D1090F811
:1023A0003E200021402A80F83E1004D01221016313
:1023B000FEF7DBFF10BD0163FFF776F910BD2DE9D5
:1023C000F84F0446C06A1E4692460D4621680A68C8
:1023D00042F480620A60082807D0012805D010F571
:1023E000803F02D0206B112804D12068016841F49D
:1023F000807101604FF0011853460022414620468B
:10240000009600F061FBF0BB206908F10109B0F50E
:10241000804F0FD00620216800EAD51747F0F00062
:1024200008613346524608F10701204600F080FB60
:1024300048BB03E0E8B240F001001BE02168E8B2CD
:102440000861334652464946204600F071FBD0B938
:102450002068416981690091016841F480710160DF
:102460005346002241462046009600F02DFB50B90D
:1024700047F0F1002168086133465246494620463C
:1024800000F056FB00E001E0002800D00120BDE88C
:10249000F88F0000F8B50446C06A1E460D46174680
:1024A000082807D0012805D010F5803F02D0206B06
:1024B000122804D12068016841F48071016013463C
:1024C00000224FF001112046009600F0FDFA08BBF3
:1024D0002069B0F5804F0ED00620216800EAD510A3
:1024E00040F0F000086133463A460B49204600F0C0
:1024F0001FFB78B902E005F0FE0000E0E8B22168B9
:102500000861054933463A46891F204600F010FB12
:10251000002800D00120F8BD0800010010B5C26AF3
:1025200090F83D1021290BD1418D51B1416A0268CB
:1025300009781161416A491C4162418D491E4185FA
:1025400010BD20230021082A13D0202A11D012F513
:10255000803F0ED00268546824F4E0645460112275
:10256000026380F83E1080F83D3000BFFEF7FEFEAB
:1025700010BD0268546824F4E06454600268146872
:1025800044F400741460016380F83D3090F83E20FC
:1025900080F83E10402AE9D1FFF787F810BD00000F
:1025A00010B590F83D1090F83E30C26A048D64B1C9
:1025B000212903D0402B21D122291FD1418DA1B344
:1025C00090F83E10402937D046E02129F2D120234F
:1025D0000021082A13D0202A11D012F5803F0ED0F6
:1025E0000268546824F4E06454601122026380F8A5
:1025F0003E1080F83D3000BFFEF7B8FE10BD026807
:10260000546824F4E06454600268146844F400746C
:102610001460016380F83D3090F83E2080F83E1051
:10262000402AE9D1FFF741F810BDFFE70068416893
:1026300021F480614160F7E7016DC1B1016D0129AD
:1026400022D0016D0229EFD190F83D10222923D02C
:1026500090F83D102129E7D1416A0268097811619B
:10266000416A491C4162418D491E4185DCE7C16CCC
:102670000129816C02D0C1F3072107E00268C9B2C9
:102680001161016D891C05E0816CC9B2026811619C
:10269000016D491C0165C7E70068016841F480715C
:1026A0000160C1E778B590F83E50C26A046B90F8BB
:1026B0003D6000230168222E73D1066D0EB9402DB6
:1026C0006FD0056D1DB90569B5F5404F1BD0458D1F
:1026D00095B3468D484D012E20D0448D022C4DD00F
:1026E0000C6844F480640C6001684C68240579D55A
:1026F000AA4273D0012A71D0082A6FD0102A6DD057
:10270000202A6BD06EE04A698A6900920A6842F416
:1027100080720A60016D491C016578BDAA4214D11E
:102720000A6822F480620A6001684A68120504D5CA
:102730000A6822F4806217E0FFE74A698A6900921A
:102740000A6842F400720A6050E0082A10D0202A79
:102750000ED0122C0AD0042A03D0022A01D0102A4B
:10276000E6D10A6842F480620A603BE0012ADFD0C9
:102770000A6822F480620A600168DEE7042A11D048
:10278000022A0FD0102A0DD00C6844F400640C60AB
:1027900001684C698C6900940C6824F480640C60B6
:1027A00008E025E00C6844F480640C6001684C6922
:1027B0008969009101684C68240517D5AA4207D0A1
:1027C000012A05D0082A03D0102A01D0202A0DD1D1
:1027D0004A6842F480524A6008E0FFE74A6842F4DF
:1027E00080524A6001684A6989690091036578BD31
:1027F00048698869009078BD0000FFFF90F83E109E
:10280000402910D00169B1F5804F19D0016DB1B3E5
:10281000016D012910D1416C5FF0F10201F44071AA
:1028200042EAD11106E0016D0029416C05D0C9B220
:1028300041F0010100680161704701F0FE01F9E714
:1028400090F83D102129416C07D0C9B241F0010137
:1028500002681161416B31B902E001F0FE01F7E756
:10286000826B002AE8D0896A19B9816B896A0029CC
:10287000E2D00068416841F4006141607047FFE7C1
:10288000416CF02201F44071CAE700002DE9F843E1
:10289000044600680D46DDE908970168984616462B
:1028A00041F4807101604B4600224FF00111204637
:1028B000009700F009F9E0B9216805F0FE00086111
:1028C0003B464A461549204600F032F988B920684F
:1028D0004169806900903A464946204600F0A6F9D1
:1028E00050B1206C042804D12068016841F40071C3
:1028F00001600120BDE8F883F5B2B8F1010F09D0FD
:102900002168300A08613A464946204600F08EF9AF
:102910000028E6D1206805610020EBE702000100F5
:10292000F8B590F83D6004460068416821F4E06124
:1029300041602068002541690091016841F0010172
:1029400001602068016821F48061016020684168AD
:10295000090520D5474F222E48D02A2E46D0616B3C
:10296000096849686185618D19B1216C41F00401E4
:102970002164416821F400614160606BFEF752F907
:10298000012808D0606B4763606BFEF7FFF810B159
:10299000606B416B8847608D08B320684169C9430B
:1029A000490708D40069616A0870606A401C606267
:1029B000608D401E608520684169C943490608D47E
:1029C0000069616A0870606A401C6062608D401E28
:1029D0006085608D18B1206C40F004002064206C8C
:1029E00000B32046BDE8F840FFF780BBA16B096843
:1029F00049686185618D19B1216C41F00401216440
:102A0000416821F400614160A06BFEF70BF90128D9
:102A1000C1D0A06B4763A06BFEF7B8F80028BAD00E
:102A2000A06BB6E72A2E06D12563282084F83D0046
:102A30002046FEF709FF94F83D10202028290DD0EC
:102A4000216B222901D0222E07D1256384F83D0075
:102A500084F83E502046FEF7F7FEF8BD0649E162D5
:102A6000256384F83D0084F83E502046FEF77CFC48
:102A7000F8BD00006D2000080000FFFF70B516468D
:102A80000D4604460DE02046FFF7D0FB08B10120BB
:102A900070BD681C05D0FEF7CBF9801BA84207D893
:102AA00035B120684069C0434007ECD4002070BDB8
:102AB000002044F8300F20216173A073216941F098
:102AC000200121612073E2E72DE9F0471E46904680
:102AD0000D460446C1F30747DDF8209008E0701C5E
:102AE00006D0FEF7A5F9A0EB0900B0420FD876B1E9
:102AF0002068012F18D0806925EA00000004000C2E
:102B000014D000214145EAD00020BDE8F087002024
:102B100044F8300F20216173A073216941F0200136
:102B2000216120730120F0E74069E5E70121E9E731
:102B30002DE9F0479A4691460E46044600254FF08F
:102B40002008C1F3074725E020684069C0434005DD
:102B500014D42068016841F40071016021686FF4A9
:102B600080604861256384F83D8084F83E50206C85
:102B700040F00400206484F83C501FE0B9F1FF3FAE
:102B800008D0FEF755F9A0EB0A0149450CD8B9F178
:102B9000000F09D02068012F13D0806926EA0000B9
:102BA0000004000C0BD0CFE744F8305F84F80D80B0
:102BB000A573206940F02000206125730120BDE845
:102BC000F0874069EAE72DE9F041002590460E467E
:102BD0000446202717E04069C043C0060CD454F8CF
:102BE000301B6FF01000486144F810596777A577E3
:102BF000206A2062257717E0FEF71AF9A0EB08009B
:102C0000B04208D83EB120684169C9434906E2D4C0
:102C10000020BDE8F08144F8305F6773A573206938
:102C200040F02000206125730120F2E770B51646C0
:102C30000D4604460DE02046FFF7F8FA08B10120E2
:102C400070BD681C05D0FEF7F3F8801BA84207D8BA
:102C500035B120684069C0430006ECD4002070BD47
:102C6000002044F8300F20216173A073216941F0E6
:102C7000200121612073E2E70149486070470000AC
:102C80002400002008B500931346012200F002F84A
:102C900008BD00002DE9FF4182B098460C9C174604
:102CA0000CB94FF47A740B4E45000094012303AA2B
:102CB00029467068FEF762FC00943B46424629466E
:102CC0007068FEF755FB18B1FF2006B0BDE8F08133
:102CD0003846FAE72400002007B502AB012200F0D5
:102CE00001F80EBD3EB54000CDE900320A4601466E
:102CF00006484FF47A74029401234068FEF7D6FC2C
:102D000008B100203EBD01203EBD0000240000208F
:102D10000C480B494FF4007201604FF4827141601E
:102D200000218160C1600161C0E905121022C0E983
:102D30000721416281620A21C162FFF79BB800004E
:102D400000300140A4000020FEE770477047704744
:102D5000FEF77CBD30B58FB028216846FDF7F9F944
:102D600014210AA8FDF7F5F902240120049000942B
:102D70001020059000254FF42010CDE9085007944D
:102D80006846FEF7E7FE0AA90F2081E831006002DD
:102D9000CDE90D0501210AA8FEF7F0FD0FB030BD09
:102DA0000D48016841F00101016041680B4A114082
:102DB000416001680A4A11400160016821F48021E4
:102DC0000160416821F4FE0141604FF41F01816000
:102DD0000449C00308607047001002400000FFF87B
:102DE000FFFFF6FE08ED00E02DE9F0410446006823
:102DF0000169E26821F44051114301612169A06831
:102E00000843616908432168CA6841F20C639A4328
:102E10000243CA6020684169A26921F440711143EC
:102E200041611E49206864253226884202D1FEF79E
:102E30004BFE01E0FEF738FE00EBC00101EB001194
:102E400060686FF018078000B1FBF0F2B2FBF5F29A
:102E5000B1FBF0F37A4303EB8202B1FBF0F306EB34
:102E60000212B2FBF5F2B3FBF5F302F0F00202EB53
:102E70000312B1FBF0F3B1FBF0F0B0FBF5F07843D7
:102E800003EB800006EB0010B0FBF5F0216800F0CA
:102E90000F0010448860BDE8F08100000038014058
:102EA000FEE700000FB4084B10B504A902AA03986E
:102EB00000F0BCF8044602A9002000F017FA2046F2
:102EC00010BC5DF814FB0000ED320008490050EA28
:102ED000C12018BF04204A0D18BF40F0010040F285
:102EE000FF72B2EB515F08BF40F00200012808BF3B
:102EF000052070470907090E002804DB00F1E020D7
:102F000080F80014704700F00F0000F1E02080F816
:102F1000141D70472DE9F0414F1E00EBC701044618
:102F2000D1E9000115461E4637F006020DD02A46AB
:102F30003346FDF70AFA7F1E04EBC703D3E90023EB
:102F4000FDF75CF937F00602F1D1022F25D0042FEE
:102F500013D0062F18BFBDE8F0812A463346FDF78F
:102F6000F4F9D4E90A23FDF749F92A463346FDF777
:102F7000ECF9D4E90823FDF741F92A463346FDF779
:102F8000E4F9D4E90623FDF739F92A463346FDF77B
:102F9000DCF9D4E90423FDF731F92A463346FDF77D
:102FA000D4F9D4E90223FDF729F92A463346FDF77F
:102FB000CCF9D4E90023BDE8F041FDF71FB90000CA
:102FC0000022134610460149FDF74FBB0000F03FB9
:102FD000FDF714B90022134610461146FDF745BB14
:102FE00040F2013200204FF0E041FDF7ADBB0000A0
:102FF000024A00201107FDF7A7BB000001FDFFFFFB
:1030000002E008C8121F08C1002AFAD170477047B1
:10301000002001E001C1121F002AFBD1704700000F
:1030200001490860704700004C0000202DE9FF4F67
:103030008DB09B460F460446002606E025280BD09F
:103040005A460F999047641C761C20780028F5D1C9
:1030500011B03046BDE8F08F0025A84601229849FE
:1030600000E0054314F8013F203B02FA03F0084258
:10307000F7D120782E2817D114F8010F45F0040558
:103080002A280ED06FF02F022078A0F130010929F4
:103090000AD808EB880102EB410100EB0108641C2F
:1030A000F2E757F8048B641C20786C280DD004DC00
:1030B0004C2812D06A2811D104E074280DD07A2847
:1030C0000CD10AE045F4001507E0617845F480155D
:1030D000814202D1641C05F58015641C2278692A9E
:1030E00045D008DC002AB3D0582A69D0632A10D012
:1030F000642A08D13BE0702A67D0732A13D0752A5E
:103100005CD0782A5CD010465A460F999047761CBE
:10311000D3E017F8040B8DF8000000208DF80100B3
:10312000E946012003E057F8049B4FF0FF306907A0
:103130004FF0000501D40AE06D1C45450DDA8542CB
:10314000FADB19F805100029F6D106E06D1C85425E
:10315000FCDB19F805100029F8D12E4404E019F819
:10316000010B5A460F9990476D1EF8D2A5E00A2030
:103170000021CDE90801C5F3025002280DD001CF8E
:10318000C117031E71F100030DDA4FF0000CD0EBF4
:103190000C006CEB01012D2308E0FF1D27F0070751
:1031A000F7E80201EDE72B0504D52B238DF8283035
:1031B00001233BE0EB0739D02023F7E70A2000E0AA
:1031C00010200021CDE9080107E01020002145F082
:1031D0000405CDE908014FF00808C5F302500228A4
:1031E0000FD001CF00214FF0000A2B071FD5702A06
:1031F0000DD0DDE908C38CF0100C5CEA030C0CD098
:1032000015E0FF1D27F00707F7E80201EBE7402272
:103210008DF828204FF0010A0BE050EA010306D098
:1032200030238DF828308DF8292002239A46582A19
:1032300004D024A20DF120090B9209E026A2F9E79F
:10324000DDE90823FDF72BF90B9B9B5C09F8013D99
:1032500050EA0102F4D1ADEB090020300890680774
:1032600001D44FF001080899884502DDA8EB010060
:1032700000E000208046002506E00AA85A46405D8E
:103280000F9990476D1C761C5545F6DB04E0302005
:103290005A460F999047761CB8F10001A8F1010831
:1032A000F5DC05E019F8010B5A460F999047761C9A
:1032B0000899481E08900029F4DC641CC5E600004B
:1032C00009280100303132333435363738396162FC
:1032D00063646566000000003031323334353637C0
:1032E0003839414243444546000000000A68531CF7
:1032F0000B6010707047000038B5054680211048FB
:10330000FCF727FF0F4C012060700006C10D0C4830
:1033100002231A46EC38FDF77BFF207040B9627833
:1033200009A16846FFF7BEFD69462846FCF71CFF69
:103330006078401CC0B260708028E6D338BD0000C1
:103340003C0100202C00002030782558200000008F
:1033500008B5FEF783FAFFF7FDFC2F48816941F0BD
:1033600004018161816901F004010091816941F0EA
:10337000080181618069294900F00800009028480F
:10338000002401602749C0E901144FF48041C0E9DD
:10339000034144618461C4610462FDF77FFEFFF76D
:1033A000B7FC1F482049AC3001604FF41651C0E90A
:1033B00001140C21C460C0E904418461C461FEF7BA
:1033C000E3FD1748EC30FFF797FF1548FFF754FC73
:1033D000FDF7CAFB0028FBD0FDF750FB134C144D42
:1033E0002E20FDF7B5FB2E20FDF776FAFDF71EFC2B
:1033F000FDF724FB6060F420FDF7AAFBF420FDF745
:103400006BFAFDF713FCFDF7ADFA2946A060FDF756
:103410003FFAE060E4E70000001002400054004082
:1034200050000020801A0600003801402C000020C7
:1034300080E6C5472DE9F04D1D460C4698B017466D
:1034400021F0004123F00043002814BF4FF0010C8D
:103450004FF0000C0CEB440CFE4A0CEB02064FEA5A
:10346000620C66452BD33E0018BF012606EB4506CD
:103470001644F94A964222D3F84A53EA070C02D07E
:10348000944205D148B918B000201146BDE8F08D2E
:10349000002808BF4FF0000C01D04FF0010C0CEBDE
:1034A000440212F5001F0AD8002F14BF4FF0010C80
:1034B0004FF0000C0CEB450212F5001F07D918B0B5
:1034C0003A462B462146BDE8F04DFFF781BD00226C
:1034D000DFF88CA3002CB8BF534526DADFF884C38D
:1034E0006345A8BF022220DADFF870C39C451CDCCC
:1034F000DFF874C30CEB235CBCF1140F08DDCCF1D6
:10350000340627FA06FC0CFA06F6BE420DD108E096
:103510005FB9CCF1140623FA06FC0CFA06F69E42BB
:1035200003D10CF00102C2F1020251EA000C19D1E0
:10353000002D17DA002C18BF022A01D0012A07D06B
:103540000220FFF76DFD18B0BDE8F04DFFF738BD64
:103550000220FFF765FDFFF733FD18B081F0004151
:10356000BDE8F08DB7F1000C6CD1534525D104F1C5
:10357000804212F5801201BF00280020B74918B020
:1035800008BFBDE8F08DB548884207DC002DA1BF1B
:103590006046294618B0BDE8F08D07E0281E05DA20
:1035A00080F0004118B06046BDE8F08DAF49794425
:1035B000D1E9000118B0BDE8F08DDFF8A0C2634585
:1035C00025D1002D1FDA19B1514512D1D8B909E022
:1035D000002840F0EC82A24A214618B062F31E0196
:1035E000BDE8F08D0020214618B060F31E01BDE853
:1035F000F08D08DA18B02346BDE8F04D02460020F1
:103600006146FDF732B818B02146BDE8F08D51454E
:1036100018DAB5F1804F0DD0A5F1005CBCF1FF5C6C
:1036200010D1B4F1000C0DDB18B06146BDE8F04DCF
:1036300000F0ECBB234618B00246BDE8F04D194639
:10364000FCF783BE060024F0004C3BD1D9B15145B4
:1036500033D1002C06DD002DA1BF0020514618B04B
:10366000BDE8F08D002C01DD002D1BDB002C13DAF2
:10367000002D11DB012A4FF0000014BF78497C496E
:1036800018B0BDE8F08D022A18BF002C0AD0012A1C
:1036900008D1002C06DA0AE0002CB8BF002D11DAA0
:1036A000012A04D0002018B00146BDE8F08D18B002
:1036B00000204FF00041BDE8F08DA1F14050B0F185
:1036C0007F601AD0012000EBE47050EA020421D0A0
:1036D000624C521E4FF0000B104304BF4FF0000B22
:1036E000644C654883427CDD644A654893421FDD33
:1036F000884217DB002D25DB37E0002C00DA4AB1C9
:10370000022A0CBF01204FF0FF3018B0BDE8F04D89
:10371000FDF731B80120FFF783FC18B0BDE8F04D8C
:10372000FFF758BC4D4A8A4202DC002D0ADC1CE03F
:10373000814202DA002D18DA04E0484B994220DD7C
:10374000002D12DD0220FFF76BFCFFF749FC054658
:103750000E460022534658462146FCF7F6FD18B0A7
:1037600066F31E012846BDE8F08D0220FFF758FCE5
:10377000FFF73EFC0A46214618B062F31E01BDE881
:10378000F08D002230466146FCF7D9FD80460E469A
:103790006FF00102FCF7D8FF4FF05532394BFCF7C0
:1037A000D1FD42463346FCF7D0FD0022364BFCF7F4
:1037B000C9FD824642463346049110461946FCF73D
:1037C000C4FD5246049BFCF7C0FD8A4600904FF0B2
:1037D000C0422E4B40463146FCF7B7FD2C4A2B4BDE
:1037E00000E027E0CDE9060151460098FCF7ADFD69
:1037F00082460191274A284B40463146FCF7A5FDF9
:103800005246019BFCF79BFD82460B460246059102
:10381000DDE90601FCF7F2FCDDE906230026884617
:103820003046FCF78CFD5246059BFCF78BFD0246AB
:1038300000F07EB90020B1F5801F07DA352230464E
:103840006146FCF781FF06466FF0340000EB215023
:1038500024E00000FFFF1F00FFFF0F000000F03F0B
:103860000000F07F0000404301FCFFFF460900001C
:103870000000F0FF0000F0BF0000E0410000F04356
:10388000FFFFEF3F5555D53F0000E03F4715F73F9D
:10389000FE822B6544DF5DF80BAE543EA0F2FF3094
:1038A0000190C1F3130040F07F6141F0405102915B
:1038B000FE498842D8BF002004DDFD498142C8BFCF
:1038C000012001DD0D9008E000200D900198401CC2
:1038D00001900298A0F5801002900299F548784472
:1038E0000B910D9900EBC100D0E900230F933046F6
:1038F0000A920B99FCF723FDCDE90601DDE90A21C7
:1039000030460F9BFCF77AFC02460B460020EA4942
:10391000FCF7ABFE059102460B460090DDE906017F
:10392000FCF713FD1490E5488A464FF000087844F0
:103930000299006812904FF0005040EA61010D9822
:103940000F9B01EB804000F5002109910A9A129823
:10395000FCF7F5FC32460B9BFCF7F4FC4246534661
:10396000FCF7F3FC0646029140465146099B129A29
:10397000FCF7EBFCDDE90623FCF7E4FC3246029B96
:10398000FCF7DDFC059B009AFCF7DFFC0091149A24
:103990000490534610461946FCF7D7FC06460246EB
:1039A000C7480B46029106217844FFF7B3FACDE9E8
:1039B0000510029B324610461946FCF7C6FCDDE9AD
:1039C0000532FCF7C2FC05910646534640461946AF
:1039D000149AFCF713FC009B049AFCF7B6FC3246E1
:1039E000059BFCF70BFCCDE90510424653461046FB
:1039F0001946FCF7AAFC0022B24B02910A90FCF790
:103A0000FDFBDDE90532FCF7F9FB0E464246AD4B06
:103A10004046FCF794FC029B0A9AFCF790FCDDE917
:103A20000532FCF78FFC424602910A90334610465D
:103A30005146FCF78AFCCDE906015346149A0299D7
:103A40000A98FCF782FC8A46029033464246009967
:103A50000498FCF77AFC5346029AFCF7CFFB8246A7
:103A60000B4602460591DDE90601FCF7C7FBDDE9DF
:103A70000623002088460646FCF761FC5246059B5B
:103A8000FCF760FC824609914FF060428E4B304655
:103A90004146FCF75AFC049006918C4A8A4B5046EA
:103AA0000999FCF752FC82460291894A894B3046BB
:103AB0004146FCF74AFC5246029BFCF79FFB864BB3
:103AC0007B440D9A03EBC203D3E90023FCF796FB7A
:103AD0000E9007910198FCF74EFE0591DDE9061363
:103AE00082460E9A0498FCF789FB7C4A7A440D9B27
:103AF00002EBC303D3E9002300930292FCF77EFBA1
:103B00005246059BFCF77AFB002688465246304613
:103B1000059BFCF714FC009B029AFCF710FC069B2B
:103B2000049AFCF70CFC079B0E9AFCF70BFC024670
:103B300000200B46029038462946FCF706FC8246D8
:103B400001912B4638461946029AFCF7F8FB32469B
:103B50004346FCF7FAFB5246019BFCF74FFB074636
:103B60008A463246434629460298FCF7EEFB054654
:103B70000E463A465346FCF741FB594A8846914265
:103B800021DBA8EB020353EA000210D12A46334698
:103B9000FCF7D5FBCDE90401524A534B3846514658
:103BA000FCF72CFBDDE90423FCF7F6FD21D2022013
:103BB000FFF736FAFFF714FA0A46214618B062F307
:103BC0001E01BDE8F08D494B28F000429A4210D307
:103BD000474A08EB020353EA00027FF4C6AD2A46C7
:103BE0003346FCF7ACFB3A465346FCF7D5FD7FF66F
:103BF000BCAD0022019228F000403E493E4A01EB54
:103C00002051824223DA481C4FF4801121FA00F03F
:103C100040443A4AC0F30A517A44394BA1F2FF3189
:103C2000CB4020EA0303C0F3130040F48010C1F13D
:103C30001401C84012680190B8F1000FBCBF4042A7
:103C4000019028463146FCF77AFB05460E462A4687
:103C5000334638465146FCF7D1FA4FF00008424649
:103C6000284B40460591FCF770FBCDE90601264A3A
:103C7000264B40460599FCF768FB009102902A46C6
:103C8000334640460599FCF75AFB3A465346FCF743
:103C900059FB1F4A1F4BFCF758FB009B029AFCF78D
:103CA000ADFA0746884602460B4635E08E9803007B
:103CB0007AB60B008E0500000000F03FC60500003C
:103CC000F40400000000084009C7EE3FFD033ADCA1
:103CD000F5015B14E02F3EBECC0300009003000012
:103CE00000009040FE822B654715973C00CC904029
:103CF00000346F3F01FCFFFF0000E03FDC020000EA
:103D0000FFFF0F00432EE63F396CA80C615C20BE1C
:103D1000EF39FAFE422EE63FDDE90601FCF76EFAC6
:103D2000DDE9062305460E46FCF709FB3A46434605
:103D3000FCF708FB0F462A4633460090104619460A
:103D4000FCF703FB824602462E4888460B460521B7
:103D50007844FFF7DFF852464346FCF7F6FA2A4666
:103D60003346FCF7EFFA80468A463B462846314602
:103D7000009AFCF7EAFA3B46009AFCF73FFA0691F4
:103D8000009000224FF0804340465146FCF7D7FA9E
:103D90000F460C904246534628463146FCF7D5FA6A
:103DA0003B460C9AFCF761FC069B009AFCF7C7FAAD
:103DB0002A463346FCF7C3FA0022134BFCF7C2FA3B
:103DC000054601980E4601EB00510815002810DC4D
:103DD00028463146019AFCF7B7FCFFF777F804282C
:103DE00008BFFFF705F928463146019AFCF7ACFCFD
:103DF00005460B4618B02A4658462146BDE8F04D08
:103E0000FCF7A3BA7C0100000000F03F2DE9F0416F
:103E100006460F46FCF7EAFC041E0D4618BF0120BB
:103E2000284320F00040C0F17F6000F1E040C00F67
:103E30000ED0301C18BF0120384320F00040C0F1E4
:103E40007F6000F1E040C00F04BF0120FFF7E8F8F9
:103E500020462946BDE8F081000000000000000077
:103E60000102030406070809000000000102030420
:103E7000000000000000F03F000000000000F83FDC
:103E800000000000000000000000004003B8E23F16
:103E9000000000000000000006D0CF43EBFD4C3EC8
:103EA000033333333333E33FFFAB6FDBB66DDB3FBD
:103EB0004D268F515555D53F01411DA96074D13F05
:103EC00065DBC9934A86CD3FEF4E454A287ECA3FFF
:103ED0003E5555555555C53F93BDBE166CC166BF81
:103EE0002CDE25AF6A56113FF16BD2C541BDBBBE7A
:103EF000D0A4BE726937663E0000000000000000DA
:103F0000203F0008000000205000000000300008A2
:103F1000703F0008500000207005000010300008BD
:103F2000770000000000000000000000000000001A
:103F30000000000000000000000000000000000081
:103F400000000000E8030000000000000000000086
:103F50000000000000000000000000000100000060
:103F600010000000000000000024F4000000000029
:04000005080000ED02
:00000001FF
